{
  "_format": "hh-sol-artifact-1",
  "contractName": "Paper721",
  "sourceName": "contracts/Paper721.sol",
  "abi": [
    {
      "inputs": [],
      "stateMutability": "nonpayable",
      "type": "constructor"
    },
    {
      "anonymous": false,
      "inputs": [
        {
          "indexed": true,
          "internalType": "address",
          "name": "owner",
          "type": "address"
        },
        {
          "indexed": true,
          "internalType": "address",
          "name": "approved",
          "type": "address"
        },
        {
          "indexed": true,
          "internalType": "uint256",
          "name": "tokenId",
          "type": "uint256"
        }
      ],
      "name": "Approval",
      "type": "event"
    },
    {
      "anonymous": false,
      "inputs": [
        {
          "indexed": true,
          "internalType": "address",
          "name": "owner",
          "type": "address"
        },
        {
          "indexed": true,
          "internalType": "address",
          "name": "operator",
          "type": "address"
        },
        {
          "indexed": false,
          "internalType": "bool",
          "name": "approved",
          "type": "bool"
        }
      ],
      "name": "ApprovalForAll",
      "type": "event"
    },
    {
      "anonymous": false,
      "inputs": [
        {
          "indexed": true,
          "internalType": "address",
          "name": "delegator",
          "type": "address"
        },
        {
          "indexed": true,
          "internalType": "address",
          "name": "fromDelegate",
          "type": "address"
        },
        {
          "indexed": true,
          "internalType": "address",
          "name": "toDelegate",
          "type": "address"
        }
      ],
      "name": "DelegateChanged",
      "type": "event"
    },
    {
      "anonymous": false,
      "inputs": [
        {
          "indexed": true,
          "internalType": "address",
          "name": "delegate",
          "type": "address"
        },
        {
          "indexed": false,
          "internalType": "uint256",
          "name": "previousBalance",
          "type": "uint256"
        },
        {
          "indexed": false,
          "internalType": "uint256",
          "name": "newBalance",
          "type": "uint256"
        }
      ],
      "name": "DelegateVotesChanged",
      "type": "event"
    },
    {
      "anonymous": false,
      "inputs": [
        {
          "indexed": true,
          "internalType": "address",
          "name": "previousOwner",
          "type": "address"
        },
        {
          "indexed": true,
          "internalType": "address",
          "name": "newOwner",
          "type": "address"
        }
      ],
      "name": "OwnershipTransferred",
      "type": "event"
    },
    {
      "anonymous": false,
      "inputs": [
        {
          "indexed": false,
          "internalType": "string",
          "name": "pageName",
          "type": "string"
        },
        {
          "indexed": false,
          "internalType": "string[]",
          "name": "pageContant",
          "type": "string[]"
        },
        {
          "indexed": true,
          "internalType": "uint256",
          "name": "tokenId",
          "type": "uint256"
        }
      ],
      "name": "PageContact",
      "type": "event"
    },
    {
      "anonymous": false,
      "inputs": [
        {
          "indexed": true,
          "internalType": "address",
          "name": "from",
          "type": "address"
        },
        {
          "indexed": true,
          "internalType": "address",
          "name": "to",
          "type": "address"
        },
        {
          "indexed": true,
          "internalType": "uint256",
          "name": "tokenId",
          "type": "uint256"
        }
      ],
      "name": "Transfer",
      "type": "event"
    },
    {
      "anonymous": false,
      "inputs": [
        {
          "indexed": false,
          "internalType": "string",
          "name": "value",
          "type": "string"
        },
        {
          "indexed": true,
          "internalType": "uint256",
          "name": "tokenId",
          "type": "uint256"
        }
      ],
      "name": "URI",
      "type": "event"
    },
    {
      "inputs": [],
      "name": "DOMAIN_SEPARATOR",
      "outputs": [
        {
          "internalType": "bytes32",
          "name": "",
          "type": "bytes32"
        }
      ],
      "stateMutability": "view",
      "type": "function"
    },
    {
      "inputs": [],
      "name": "MAX_WHITE_PAPER_SUPPLY",
      "outputs": [
        {
          "internalType": "uint256",
          "name": "",
          "type": "uint256"
        }
      ],
      "stateMutability": "view",
      "type": "function"
    },
    {
      "inputs": [
        {
          "internalType": "address",
          "name": "to",
          "type": "address"
        },
        {
          "internalType": "uint256",
          "name": "tokenId",
          "type": "uint256"
        }
      ],
      "name": "approve",
      "outputs": [],
      "stateMutability": "nonpayable",
      "type": "function"
    },
    {
      "inputs": [
        {
          "internalType": "address",
          "name": "owner",
          "type": "address"
        }
      ],
      "name": "balanceOf",
      "outputs": [
        {
          "internalType": "uint256",
          "name": "",
          "type": "uint256"
        }
      ],
      "stateMutability": "view",
      "type": "function"
    },
    {
      "inputs": [
        {
          "internalType": "uint256",
          "name": "tokenId",
          "type": "uint256"
        }
      ],
      "name": "burn",
      "outputs": [],
      "stateMutability": "nonpayable",
      "type": "function"
    },
    {
      "inputs": [
        {
          "internalType": "address",
          "name": "delegatee",
          "type": "address"
        }
      ],
      "name": "delegate",
      "outputs": [],
      "stateMutability": "nonpayable",
      "type": "function"
    },
    {
      "inputs": [
        {
          "internalType": "address",
          "name": "delegatee",
          "type": "address"
        },
        {
          "internalType": "uint256",
          "name": "nonce",
          "type": "uint256"
        },
        {
          "internalType": "uint256",
          "name": "expiry",
          "type": "uint256"
        },
        {
          "internalType": "uint8",
          "name": "v",
          "type": "uint8"
        },
        {
          "internalType": "bytes32",
          "name": "r",
          "type": "bytes32"
        },
        {
          "internalType": "bytes32",
          "name": "s",
          "type": "bytes32"
        }
      ],
      "name": "delegateBySig",
      "outputs": [],
      "stateMutability": "nonpayable",
      "type": "function"
    },
    {
      "inputs": [
        {
          "internalType": "address",
          "name": "account",
          "type": "address"
        }
      ],
      "name": "delegates",
      "outputs": [
        {
          "internalType": "address",
          "name": "",
          "type": "address"
        }
      ],
      "stateMutability": "view",
      "type": "function"
    },
    {
      "inputs": [
        {
          "internalType": "uint256",
          "name": "tokenId",
          "type": "uint256"
        }
      ],
      "name": "getApproved",
      "outputs": [
        {
          "internalType": "address",
          "name": "",
          "type": "address"
        }
      ],
      "stateMutability": "view",
      "type": "function"
    },
    {
      "inputs": [
        {
          "internalType": "uint256",
          "name": "blockNumber",
          "type": "uint256"
        }
      ],
      "name": "getPastTotalSupply",
      "outputs": [
        {
          "internalType": "uint256",
          "name": "",
          "type": "uint256"
        }
      ],
      "stateMutability": "view",
      "type": "function"
    },
    {
      "inputs": [
        {
          "internalType": "address",
          "name": "account",
          "type": "address"
        },
        {
          "internalType": "uint256",
          "name": "blockNumber",
          "type": "uint256"
        }
      ],
      "name": "getPastVotes",
      "outputs": [
        {
          "internalType": "uint256",
          "name": "",
          "type": "uint256"
        }
      ],
      "stateMutability": "view",
      "type": "function"
    },
    {
      "inputs": [
        {
          "internalType": "uint256",
          "name": "_tokenId",
          "type": "uint256"
        }
      ],
      "name": "getText",
      "outputs": [
        {
          "internalType": "string[]",
          "name": "",
          "type": "string[]"
        }
      ],
      "stateMutability": "view",
      "type": "function"
    },
    {
      "inputs": [
        {
          "internalType": "address",
          "name": "account",
          "type": "address"
        }
      ],
      "name": "getVotes",
      "outputs": [
        {
          "internalType": "uint256",
          "name": "",
          "type": "uint256"
        }
      ],
      "stateMutability": "view",
      "type": "function"
    },
    {
      "inputs": [
        {
          "internalType": "address",
          "name": "owner",
          "type": "address"
        },
        {
          "internalType": "address",
          "name": "operator",
          "type": "address"
        }
      ],
      "name": "isApprovedForAll",
      "outputs": [
        {
          "internalType": "bool",
          "name": "",
          "type": "bool"
        }
      ],
      "stateMutability": "view",
      "type": "function"
    },
    {
      "inputs": [
        {
          "internalType": "address",
          "name": "to",
          "type": "address"
        }
      ],
      "name": "mint",
      "outputs": [],
      "stateMutability": "payable",
      "type": "function"
    },
    {
      "inputs": [],
      "name": "mintPrice",
      "outputs": [
        {
          "internalType": "uint256",
          "name": "",
          "type": "uint256"
        }
      ],
      "stateMutability": "view",
      "type": "function"
    },
    {
      "inputs": [],
      "name": "name",
      "outputs": [
        {
          "internalType": "string",
          "name": "",
          "type": "string"
        }
      ],
      "stateMutability": "view",
      "type": "function"
    },
    {
      "inputs": [
        {
          "internalType": "address",
          "name": "owner",
          "type": "address"
        }
      ],
      "name": "nonces",
      "outputs": [
        {
          "internalType": "uint256",
          "name": "",
          "type": "uint256"
        }
      ],
      "stateMutability": "view",
      "type": "function"
    },
    {
      "inputs": [],
      "name": "owner",
      "outputs": [
        {
          "internalType": "address",
          "name": "",
          "type": "address"
        }
      ],
      "stateMutability": "view",
      "type": "function"
    },
    {
      "inputs": [
        {
          "internalType": "uint256",
          "name": "tokenId",
          "type": "uint256"
        }
      ],
      "name": "ownerOf",
      "outputs": [
        {
          "internalType": "address",
          "name": "",
          "type": "address"
        }
      ],
      "stateMutability": "view",
      "type": "function"
    },
    {
      "inputs": [
        {
          "internalType": "uint256",
          "name": "_tokenId",
          "type": "uint256"
        }
      ],
      "name": "price",
      "outputs": [
        {
          "internalType": "uint256",
          "name": "",
          "type": "uint256"
        }
      ],
      "stateMutability": "view",
      "type": "function"
    },
    {
      "inputs": [],
      "name": "renounceOwnership",
      "outputs": [],
      "stateMutability": "nonpayable",
      "type": "function"
    },
    {
      "inputs": [
        {
          "internalType": "uint256",
          "name": "_tokenId",
          "type": "uint256"
        },
        {
          "internalType": "uint256",
          "name": "_salePrice",
          "type": "uint256"
        }
      ],
      "name": "royaltyInfo",
      "outputs": [
        {
          "internalType": "address",
          "name": "receiver",
          "type": "address"
        },
        {
          "internalType": "uint256",
          "name": "royaltyAmount",
          "type": "uint256"
        }
      ],
      "stateMutability": "view",
      "type": "function"
    },
    {
      "inputs": [
        {
          "internalType": "address",
          "name": "from",
          "type": "address"
        },
        {
          "internalType": "address",
          "name": "to",
          "type": "address"
        },
        {
          "internalType": "uint256",
          "name": "tokenId",
          "type": "uint256"
        }
      ],
      "name": "safeTransferFrom",
      "outputs": [],
      "stateMutability": "nonpayable",
      "type": "function"
    },
    {
      "inputs": [
        {
          "internalType": "address",
          "name": "from",
          "type": "address"
        },
        {
          "internalType": "address",
          "name": "to",
          "type": "address"
        },
        {
          "internalType": "uint256",
          "name": "tokenId",
          "type": "uint256"
        },
        {
          "internalType": "bytes",
          "name": "_data",
          "type": "bytes"
        }
      ],
      "name": "safeTransferFrom",
      "outputs": [],
      "stateMutability": "nonpayable",
      "type": "function"
    },
    {
      "inputs": [
        {
          "internalType": "address",
          "name": "operator",
          "type": "address"
        },
        {
          "internalType": "bool",
          "name": "approved",
          "type": "bool"
        }
      ],
      "name": "setApprovalForAll",
      "outputs": [],
      "stateMutability": "nonpayable",
      "type": "function"
    },
    {
      "inputs": [
        {
          "internalType": "bytes4",
          "name": "interfaceId",
          "type": "bytes4"
        }
      ],
      "name": "supportsInterface",
      "outputs": [
        {
          "internalType": "bool",
          "name": "",
          "type": "bool"
        }
      ],
      "stateMutability": "view",
      "type": "function"
    },
    {
      "inputs": [],
      "name": "symbol",
      "outputs": [
        {
          "internalType": "string",
          "name": "",
          "type": "string"
        }
      ],
      "stateMutability": "view",
      "type": "function"
    },
    {
      "inputs": [
        {
          "internalType": "uint256",
          "name": "tokenId",
          "type": "uint256"
        }
      ],
      "name": "tokenURI",
      "outputs": [
        {
          "internalType": "string",
          "name": "",
          "type": "string"
        }
      ],
      "stateMutability": "view",
      "type": "function"
    },
    {
      "inputs": [
        {
          "internalType": "address",
          "name": "from",
          "type": "address"
        },
        {
          "internalType": "address",
          "name": "to",
          "type": "address"
        },
        {
          "internalType": "uint256",
          "name": "tokenId",
          "type": "uint256"
        }
      ],
      "name": "transferFrom",
      "outputs": [],
      "stateMutability": "nonpayable",
      "type": "function"
    },
    {
      "inputs": [
        {
          "internalType": "address",
          "name": "newOwner",
          "type": "address"
        }
      ],
      "name": "transferOwnership",
      "outputs": [],
      "stateMutability": "nonpayable",
      "type": "function"
    },
    {
      "inputs": [],
      "name": "treasury",
      "outputs": [
        {
          "internalType": "address",
          "name": "",
          "type": "address"
        }
      ],
      "stateMutability": "view",
      "type": "function"
    },
    {
      "inputs": [
        {
          "internalType": "uint256",
          "name": "tokenId",
          "type": "uint256"
        },
        {
          "internalType": "string",
          "name": "pageName",
          "type": "string"
        },
        {
          "internalType": "string[]",
          "name": "text",
          "type": "string[]"
        }
      ],
      "name": "typewrite",
      "outputs": [],
      "stateMutability": "nonpayable",
      "type": "function"
    }
  ],
  "bytecode": "0x6101406040526000600d556103e8600e556001600f55601180546001600160a01b031916733b7a108fb52bc263d8fcb6c77dff5b9b152c5f2c1790553480156200004857600080fd5b506040518060400160405280600a8152602001692bb434ba32a830b832b960b11b815250604051806040016040528060038152602001620312e360ec1b8152506040518060400160405280600a8152602001692bb434ba32a830b832b960b11b81525060405180604001604052806002815260200161057560f41b8152508160009080519060200190620000de92919062000202565b508051620000f490600190602084019062000202565b505050620001116200010b620001ac60201b60201c565b620001b0565b815160208084019190912082518383012060e08290526101008190524660a0818152604080517f8b73c3c69bb8fe3d512ecc4cf759cc79239f7b179b0ffacaa9a75d522b39400f81880181905281830187905260608201869052608082019490945230818401528151808203909301835260c00190528051940193909320919290916080523060601b60c0526101205250620002e592505050565b3390565b600780546001600160a01b038381166001600160a01b0319831681179093556040519116919082907f8be0079c531659141344cd1fd0a4f28419497f9722a3daafe3b4186f6b6457e090600090a35050565b8280546200021090620002a8565b90600052602060002090601f0160209004810192826200023457600085556200027f565b82601f106200024f57805160ff19168380011785556200027f565b828001600101855582156200027f579182015b828111156200027f57825182559160200191906001019062000262565b506200028d92915062000291565b5090565b5b808211156200028d576000815560010162000292565b600181811c90821680620002bd57607f821691505b60208210811415620002df57634e487b7160e01b600052602260045260246000fd5b50919050565b60805160a05160c05160601c60e05161010051610120516139076200033860003960006116a8015260006116f7015260006116d20152600061162b015260006116550152600061167f01526139076000f3fe6080604052600436106101ee5760003560e01c80636817c76c1161010d57806395d89b41116100a0578063b88d4fde1161006f578063b88d4fde146105b2578063c3cda520146105d2578063c87b56dd146105f2578063e985e9c514610612578063f2fde38b1461065b57600080fd5b806395d89b411461053d5780639ab24eb014610552578063a22cb46514610572578063a53302441461059257600080fd5b80637ecebe00116100dc5780637ecebe00146104b25780637f4ef9d4146104d25780638da5cb5b146104ff5780638e539e8c1461051d57600080fd5b80636817c76c146104555780636a6278421461046a57806370a082311461047d578063715018a61461049d57600080fd5b806339d1237711610185578063587cde1e11610154578063587cde1e146103bc5780635c19a95c146103f557806361d027b3146104155780636352211e1461043557600080fd5b806339d12377146103465780633a46b1a81461035c57806342842e0e1461037c57806342966c681461039c57600080fd5b806323b872dd116101c157806323b872dd146102a457806326a49e37146102c45780632a55205a146102f25780633644e5151461033157600080fd5b806301ffc9a7146101f357806306fdde0314610228578063081812fc1461024a578063095ea7b314610282575b600080fd5b3480156101ff57600080fd5b5061021361020e366004612d1b565b61067b565b60405190151581526020015b60405180910390f35b34801561023457600080fd5b5061023d6106cd565b60405161021f91906131c3565b34801561025657600080fd5b5061026a610265366004612d55565b61075f565b6040516001600160a01b03909116815260200161021f565b34801561028e57600080fd5b506102a261029d366004612c91565b6107f9565b005b3480156102b057600080fd5b506102a26102bf366004612b9d565b61090f565b3480156102d057600080fd5b506102e46102df366004612d55565b610941565b60405190815260200161021f565b3480156102fe57600080fd5b5061031261030d366004612e65565b610973565b604080516001600160a01b03909316835260208301919091520161021f565b34801561033d57600080fd5b506102e46109a6565b34801561035257600080fd5b506102e461271081565b34801561036857600080fd5b506102e4610377366004612c91565b6109b5565b34801561038857600080fd5b506102a2610397366004612b9d565b6109d7565b3480156103a857600080fd5b506102a26103b7366004612d55565b6109f2565b3480156103c857600080fd5b5061026a6103d7366004612b4f565b6001600160a01b039081166000908152600860205260409020541690565b34801561040157600080fd5b506102a2610410366004612b4f565b610a6c565b34801561042157600080fd5b5060115461026a906001600160a01b031681565b34801561044157600080fd5b5061026a610450366004612d55565b610a7b565b34801561046157600080fd5b506102e4610af2565b6102a2610478366004612b4f565b610b1a565b34801561048957600080fd5b506102e4610498366004612b4f565b610c49565b3480156104a957600080fd5b506102a2610cd0565b3480156104be57600080fd5b506102e46104cd366004612b4f565b610d36565b3480156104de57600080fd5b506104f26104ed366004612d55565b610d54565b60405161021f91906131b0565b34801561050b57600080fd5b506007546001600160a01b031661026a565b34801561052957600080fd5b506102e4610538366004612d55565b610e40565b34801561054957600080fd5b5061023d610e9c565b34801561055e57600080fd5b506102e461056d366004612b4f565b610eab565b34801561057e57600080fd5b506102a261058d366004612c55565b610ecc565b34801561059e57600080fd5b506102a26105ad366004612d6e565b610ed7565b3480156105be57600080fd5b506102a26105cd366004612bd9565b61107c565b3480156105de57600080fd5b506102a26105ed366004612cbb565b6110b4565b3480156105fe57600080fd5b5061023d61060d366004612d55565b6111e1565b34801561061e57600080fd5b5061021361062d366004612b6a565b6001600160a01b03918216600090815260056020908152604080832093909416825291909152205460ff1690565b34801561066757600080fd5b506102a2610676366004612b4f565b61124f565b60006001600160e01b031982166380ac58cd60e01b14806106ac57506001600160e01b03198216635b5e139f60e01b145b806106c757506301ffc9a760e01b6001600160e01b03198316145b92915050565b6060600080546106dc90613366565b80601f016020809104026020016040519081016040528092919081815260200182805461070890613366565b80156107555780601f1061072a57610100808354040283529160200191610755565b820191906000526020600020905b81548152906001019060200180831161073857829003601f168201915b5050505050905090565b6000818152600260205260408120546001600160a01b03166107dd5760405162461bcd60e51b815260206004820152602c60248201527f4552433732313a20617070726f76656420717565727920666f72206e6f6e657860448201526b34b9ba32b73a103a37b5b2b760a11b60648201526084015b60405180910390fd5b506000908152600460205260409020546001600160a01b031690565b600061080482610a7b565b9050806001600160a01b0316836001600160a01b031614156108725760405162461bcd60e51b815260206004820152602160248201527f4552433732313a20617070726f76616c20746f2063757272656e74206f776e656044820152603960f91b60648201526084016107d4565b336001600160a01b038216148061088e575061088e813361062d565b6109005760405162461bcd60e51b815260206004820152603860248201527f4552433732313a20617070726f76652063616c6c6572206973206e6f74206f7760448201527f6e6572206e6f7220617070726f76656420666f7220616c6c000000000000000060648201526084016107d4565b61090a8383611317565b505050565b61091a335b82611385565b6109365760405162461bcd60e51b81526004016107d490613256565b61090a83838361147c565b600080600f54600e548461095591906132f0565b61095f9190613304565b600d5461096c91906132d8565b9392505050565b60008080612710610985606486613304565b61098f91906132f0565b6011546001600160a01b0316969095509350505050565b60006109b061161e565b905090565b6001600160a01b038216600090815260096020526040812061096c9083611745565b61090a8383836040518060200160405280600081525061107c565b6109fb33610914565b610a605760405162461bcd60e51b815260206004820152603060248201527f4552433732314275726e61626c653a2063616c6c6572206973206e6f74206f7760448201526f1b995c881b9bdc88185c1c1c9bdd995960821b60648201526084016107d4565b610a6981611854565b50565b33610a77818361185d565b5050565b6000818152600260205260408120546001600160a01b0316806106c75760405162461bcd60e51b815260206004820152602960248201527f4552433732313a206f776e657220717565727920666f72206e6f6e657869737460448201526832b73a103a37b5b2b760b91b60648201526084016107d4565b600080610afe600c5490565b610b099060016132d8565b9050610b1481610941565b91505090565b600c5461271011610b665760405162461bcd60e51b8152602060048201526016602482015275416c6c2070617065727320776173206d696e7465642160501b60448201526064016107d4565b323314610ba05760405162461bcd60e51b81526020600482015260086024820152674e6f20426f74732160c01b60448201526064016107d4565b610ba8610af2565b341115610beb5760405162461bcd60e51b8152602060048201526011602482015270496e737566696369656e742046756e647360781b60448201526064016107d4565b610bf9600c80546001019055565b6000610c04600c5490565b9050610c1082826118cf565b6011546040516001600160a01b03909116903480156108fc02916000818181858888f1935050505015801561090a573d6000803e3d6000fd5b60006001600160a01b038216610cb45760405162461bcd60e51b815260206004820152602a60248201527f4552433732313a2062616c616e636520717565727920666f7220746865207a65604482015269726f206164647265737360b01b60648201526084016107d4565b506001600160a01b031660009081526003602052604090205490565b6007546001600160a01b03163314610d2a5760405162461bcd60e51b815260206004820181905260248201527f4f776e61626c653a2063616c6c6572206973206e6f7420746865206f776e657260448201526064016107d4565b610d3460006118e9565b565b6001600160a01b0381166000908152600b60205260408120546106c7565b606060146000838152602001908152602001600020805480602002602001604051908101604052809291908181526020016000905b82821015610e35578382906000526020600020018054610da890613366565b80601f0160208091040260200160405190810160405280929190818152602001828054610dd490613366565b8015610e215780601f10610df657610100808354040283529160200191610e21565b820191906000526020600020905b815481529060010190602001808311610e0457829003601f168201915b505050505081526020019060010190610d89565b505050509050919050565b6000438210610e915760405162461bcd60e51b815260206004820152601a60248201527f566f7465733a20626c6f636b206e6f7420796574206d696e656400000000000060448201526064016107d4565b6106c7600a83611745565b6060600180546106dc90613366565b6001600160a01b03811660009081526009602052604081206106c79061193b565b610a77338383611997565b610ee083610a7b565b6001600160a01b0316336001600160a01b031614610f4b5760405162461bcd60e51b815260206004820152602260248201527f4f6e6c7920746865206f776e65722063616e207772697465207468652070617060448201526132b960f11b60648201526084016107d4565b60008381526012602052604090205460ff1615610fa25760405162461bcd60e51b81526020600482015260156024820152742830b832b91020b63932b0b23c902bb934ba3a32b760591b60448201526064016107d4565b60008381526014602090815260409091208251610fc192840190612976565b5060008381526013602090815260409091208351610fe1928501906129cf565b5060008381526012602052604090819020805460ff191660011790555183907f95c03e42cab70268568ddb01c242889ad2e2bfa76a70774afb17e0673e56f25c9061102f90859085906131d6565b60405180910390a2827f6bb7ff708619ba0610cba295a58592e0451dee2622938c8755667688daf3529b611062856111e1565b60405161106f91906131c3565b60405180910390a2505050565b6110863383611385565b6110a25760405162461bcd60e51b81526004016107d490613256565b6110ae84848484611a66565b50505050565b834211156111045760405162461bcd60e51b815260206004820152601860248201527f566f7465733a207369676e61747572652065787069726564000000000000000060448201526064016107d4565b604080517fe48329057bfd03d55e49b547132e39cffd9c1820ad7b9d4c5307691425d15adf60208201526001600160a01b03881691810191909152606081018690526080810185905260009061117e906111769060a00160405160208183030381529060405280519060200120611a99565b858585611ae7565b905061118981611b0f565b86146111ce5760405162461bcd60e51b8152602060048201526014602482015273566f7465733a20696e76616c6964206e6f6e636560601b60448201526064016107d4565b6111d8818861185d565b50505050505050565b6000818152601360205260408120606091906112259061120085611b37565b604051602001611211929190613026565b604051602081830303815290604052611cd8565b9050806040516020016112389190613138565b604051602081830303815290604052915050919050565b6007546001600160a01b031633146112a95760405162461bcd60e51b815260206004820181905260248201527f4f776e61626c653a2063616c6c6572206973206e6f7420746865206f776e657260448201526064016107d4565b6001600160a01b03811661130e5760405162461bcd60e51b815260206004820152602660248201527f4f776e61626c653a206e6577206f776e657220697320746865207a65726f206160448201526564647265737360d01b60648201526084016107d4565b610a69816118e9565b600081815260046020526040902080546001600160a01b0319166001600160a01b038416908117909155819061134c82610a7b565b6001600160a01b03167f8c5be1e5ebec7d5bd14f71427d1e84f3dd0314c0f7b2291e5b200ac8c7c3b92560405160405180910390a45050565b6000818152600260205260408120546001600160a01b03166113fe5760405162461bcd60e51b815260206004820152602c60248201527f4552433732313a206f70657261746f7220717565727920666f72206e6f6e657860448201526b34b9ba32b73a103a37b5b2b760a11b60648201526084016107d4565b600061140983610a7b565b9050806001600160a01b0316846001600160a01b0316148061145057506001600160a01b0380821660009081526005602090815260408083209388168352929052205460ff165b806114745750836001600160a01b03166114698461075f565b6001600160a01b0316145b949350505050565b826001600160a01b031661148f82610a7b565b6001600160a01b0316146114f35760405162461bcd60e51b815260206004820152602560248201527f4552433732313a207472616e736665722066726f6d20696e636f72726563742060448201526437bbb732b960d91b60648201526084016107d4565b6001600160a01b0382166115555760405162461bcd60e51b8152602060048201526024808201527f4552433732313a207472616e7366657220746f20746865207a65726f206164646044820152637265737360e01b60648201526084016107d4565b611560600082611317565b6001600160a01b0383166000908152600360205260408120805460019290611589908490613323565b90915550506001600160a01b03821660009081526003602052604081208054600192906115b79084906132d8565b909155505060008181526002602052604080822080546001600160a01b0319166001600160a01b0386811691821790925591518493918716917fddf252ad1be2c89b69c2b068fc378daa952ba7f163c4a11628f55a4df523b3ef91a461090a838383611e3e565b6000306001600160a01b037f00000000000000000000000000000000000000000000000000000000000000001614801561167757507f000000000000000000000000000000000000000000000000000000000000000046145b156116a157507f000000000000000000000000000000000000000000000000000000000000000090565b50604080517f00000000000000000000000000000000000000000000000000000000000000006020808301919091527f0000000000000000000000000000000000000000000000000000000000000000828401527f000000000000000000000000000000000000000000000000000000000000000060608301524660808301523060a0808401919091528351808403909101815260c0909201909252805191012090565b60004382106117965760405162461bcd60e51b815260206004820181905260248201527f436865636b706f696e74733a20626c6f636b206e6f7420796574206d696e656460448201526064016107d4565b825460005b818110156117fb5760006117af8284611e49565b9050848660000182815481106117c7576117c761340c565b60009182526020909120015463ffffffff1611156117e7578092506117f5565b6117f28160016132d8565b91505b5061179b565b811561183f578461180d600184613323565b8154811061181d5761181d61340c565b60009182526020909120015464010000000090046001600160e01b0316611842565b60005b6001600160e01b031695945050505050565b610a6981611e64565b6001600160a01b0382811660008181526008602052604080822080548686166001600160a01b0319821681179092559151919094169392849290917f3134e8a2e6d97e929a7e54011ea5485d7d196dd5f0ba4d4ef95803e8e3fc257f9190a461090a81836118ca86611ea4565b611eaf565b610a77828260405180602001604052806000815250611fec565b600780546001600160a01b038381166001600160a01b0319831681179093556040519116919082907f8be0079c531659141344cd1fd0a4f28419497f9722a3daafe3b4186f6b6457e090600090a35050565b805460009080156119845782611952600183613323565b815481106119625761196261340c565b60009182526020909120015464010000000090046001600160e01b0316611987565b60005b6001600160e01b03169392505050565b816001600160a01b0316836001600160a01b031614156119f95760405162461bcd60e51b815260206004820152601960248201527f4552433732313a20617070726f766520746f2063616c6c65720000000000000060448201526064016107d4565b6001600160a01b03838116600081815260056020908152604080832094871680845294825291829020805460ff191686151590811790915591519182527f17307eab39ab6107e8899845ad3d59bd9653f200f220920489ca2b5937696c31910160405180910390a3505050565b611a7184848461147c565b611a7d8484848461201f565b6110ae5760405162461bcd60e51b81526004016107d490613204565b60006106c7611aa661161e565b8360405161190160f01b6020820152602281018390526042810182905260009060620160405160208183030381529060405280519060200120905092915050565b6000806000611af887878787612129565b91509150611b0581612216565b5095945050505050565b6001600160a01b0381166000908152600b602052604090208054600181018255905b50919050565b6060806060806060604051806104800160405280610443815260200161344f61044391399250606060005b600088815260146020526040902054811015611c86576000888152601460205260408120805483908110611b9857611b9861340c565b906000526020600020018054611bad90613366565b80601f0160208091040260200160405190810160405280929190818152602001828054611bd990613366565b8015611c265780601f10611bfb57610100808354040283529160200191611c26565b820191906000526020600020905b815481529060010190602001808311611c0957829003601f168201915b5050505050905086611c4e836064611c3e9190613304565b611c499060fa6132d8565b6123d1565b82604051602001611c6193929190612f6a565b6040516020818303038152906040529250508080611c7e9061339b565b915050611b62565b50604051806040016040528060068152602001651e17b9bb339f60d11b8152509250838184604051602001611cbd93929190612f27565b60408051601f19818403018152919052979650505050505050565b6060815160001415611cf857505060408051602081019091526000815290565b60006040518060600160405280604081526020016138926040913990506000600384516002611d2791906132d8565b611d3191906132f0565b611d3c906004613304565b90506000611d4b8260206132d8565b67ffffffffffffffff811115611d6357611d63613422565b6040519080825280601f01601f191660200182016040528015611d8d576020820181803683370190505b509050818152600183018586518101602084015b81831015611df9576003830192508251603f8160121c168501518253600182019150603f81600c1c168501518253600182019150603f8160061c168501518253600182019150603f8116850151825350600101611da1565b600389510660018114611e135760028114611e2457611e30565b613d3d60f01b600119830152611e30565b603d60f81b6000198301525b509398975050505050505050565b61090a8383836124cf565b6000611e5860028484186132f0565b61096c908484166132d8565b611e6d816124db565b60008181526006602052604090208054611e8690613366565b159050610a69576000818152600660205260408120610a6991612a4f565b60006106c782610c49565b816001600160a01b0316836001600160a01b031614158015611ed15750600081115b1561090a576001600160a01b03831615611f5f576001600160a01b03831660009081526009602052604081208190611f0c9061257e8561258a565b91509150846001600160a01b03167fdec2bacdd2f05b59de34da9b523dff8be42e5e38e818c82fdb0bae774387a7248383604051611f54929190918252602082015260400190565b60405180910390a250505b6001600160a01b0382161561090a576001600160a01b03821660009081526009602052604081208190611f95906125b88561258a565b91509150836001600160a01b03167fdec2bacdd2f05b59de34da9b523dff8be42e5e38e818c82fdb0bae774387a7248383604051611fdd929190918252602082015260400190565b60405180910390a25050505050565b611ff683836125c4565b612003600084848461201f565b61090a5760405162461bcd60e51b81526004016107d490613204565b60006001600160a01b0384163b1561212157604051630a85bd0160e11b81526001600160a01b0385169063150b7a029061206390339089908890889060040161317d565b602060405180830381600087803b15801561207d57600080fd5b505af19250505080156120ad575060408051601f3d908101601f191682019092526120aa91810190612d38565b60015b612107573d8080156120db576040519150601f19603f3d011682016040523d82523d6000602084013e6120e0565b606091505b5080516120ff5760405162461bcd60e51b81526004016107d490613204565b805181602001fd5b6001600160e01b031916630a85bd0160e11b149050611474565b506001611474565b6000807f7fffffffffffffffffffffffffffffff5d576e7357a4501ddfe92f46681b20a0831115612160575060009050600361220d565b8460ff16601b1415801561217857508460ff16601c14155b15612189575060009050600461220d565b6040805160008082526020820180845289905260ff881692820192909252606081018690526080810185905260019060a0016020604051602081039080840390855afa1580156121dd573d6000803e3d6000fd5b5050604051601f1901519150506001600160a01b0381166122065760006001925092505061220d565b9150600090505b94509492505050565b600081600481111561222a5761222a6133f6565b14156122335750565b6001816004811115612247576122476133f6565b14156122955760405162461bcd60e51b815260206004820152601860248201527f45434453413a20696e76616c6964207369676e6174757265000000000000000060448201526064016107d4565b60028160048111156122a9576122a96133f6565b14156122f75760405162461bcd60e51b815260206004820152601f60248201527f45434453413a20696e76616c6964207369676e6174757265206c656e6774680060448201526064016107d4565b600381600481111561230b5761230b6133f6565b14156123645760405162461bcd60e51b815260206004820152602260248201527f45434453413a20696e76616c6964207369676e6174757265202773272076616c604482015261756560f01b60648201526084016107d4565b6004816004811115612378576123786133f6565b1415610a695760405162461bcd60e51b815260206004820152602260248201527f45434453413a20696e76616c6964207369676e6174757265202776272076616c604482015261756560f01b60648201526084016107d4565b6060816123f55750506040805180820190915260018152600360fc1b602082015290565b8160005b811561241f57806124098161339b565b91506124189050600a836132f0565b91506123f9565b60008167ffffffffffffffff81111561243a5761243a613422565b6040519080825280601f01601f191660200182016040528015612464576020820181803683370190505b5090505b841561147457612479600183613323565b9150612486600a866133b6565b6124919060306132d8565b60f81b8183815181106124a6576124a661340c565b60200101906001600160f81b031916908160001a9053506124c8600a866132f0565b9450612468565b61090a8383600161270e565b60006124e682610a7b565b90506124f3600083611317565b6001600160a01b038116600090815260036020526040812080546001929061251c908490613323565b909155505060008281526002602052604080822080546001600160a01b0319169055518391906001600160a01b038416907fddf252ad1be2c89b69c2b068fc378daa952ba7f163c4a11628f55a4df523b3ef908390a4610a7781600084611e3e565b600061096c8284613323565b6000806125ac856125a761259d8861193b565b868863ffffffff16565b61277e565b91509150935093915050565b600061096c82846132d8565b6001600160a01b03821661261a5760405162461bcd60e51b815260206004820181905260248201527f4552433732313a206d696e7420746f20746865207a65726f206164647265737360448201526064016107d4565b6000818152600260205260409020546001600160a01b03161561267f5760405162461bcd60e51b815260206004820152601c60248201527f4552433732313a20746f6b656e20616c7265616479206d696e7465640000000060448201526064016107d4565b6001600160a01b03821660009081526003602052604081208054600192906126a89084906132d8565b909155505060008181526002602052604080822080546001600160a01b0319166001600160a01b03861690811790915590518392907fddf252ad1be2c89b69c2b068fc378daa952ba7f163c4a11628f55a4df523b3ef908290a4610a7760008383611e3e565b6001600160a01b03831661272d5761272a600a6125b88361258a565b50505b6001600160a01b03821661274c57612749600a61257e8361258a565b50505b6001600160a01b0383811660009081526008602052604080822054858416835291205461090a92918216911683611eaf565b815460009081908161278f8661193b565b90506000821180156127cd575043866127a9600185613323565b815481106127b9576127b961340c565b60009182526020909120015463ffffffff16145b1561282d576127db856128a4565b866127e7600185613323565b815481106127f7576127f761340c565b9060005260206000200160000160046101000a8154816001600160e01b0302191690836001600160e01b0316021790555061289b565b85600001604051806040016040528061284543612911565b63ffffffff168152602001612859886128a4565b6001600160e01b0390811690915282546001810184556000938452602093849020835194909301519091166401000000000263ffffffff909316929092179101555b95939450505050565b60006001600160e01b0382111561290d5760405162461bcd60e51b815260206004820152602760248201527f53616665436173743a2076616c756520646f65736e27742066697420696e20326044820152663234206269747360c81b60648201526084016107d4565b5090565b600063ffffffff82111561290d5760405162461bcd60e51b815260206004820152602660248201527f53616665436173743a2076616c756520646f65736e27742066697420696e203360448201526532206269747360d01b60648201526084016107d4565b8280548282559060005260206000209081019282156129c3579160200282015b828111156129c357825180516129b39184916020909101906129cf565b5091602001919060010190612996565b5061290d929150612a89565b8280546129db90613366565b90600052602060002090601f0160209004810192826129fd5760008555612a43565b82601f10612a1657805160ff1916838001178555612a43565b82800160010185558215612a43579182015b82811115612a43578251825591602001919060010190612a28565b5061290d929150612aa6565b508054612a5b90613366565b6000825580601f10612a6b575050565b601f016020900490600052602060002090810190610a699190612aa6565b8082111561290d576000612a9d8282612a4f565b50600101612a89565b5b8082111561290d5760008155600101612aa7565b600067ffffffffffffffff831115612ad557612ad5613422565b612ae8601f8401601f19166020016132a7565b9050828152838383011115612afc57600080fd5b828260208301376000602084830101529392505050565b80356001600160a01b0381168114612b2a57600080fd5b919050565b600082601f830112612b4057600080fd5b61096c83833560208501612abb565b600060208284031215612b6157600080fd5b61096c82612b13565b60008060408385031215612b7d57600080fd5b612b8683612b13565b9150612b9460208401612b13565b90509250929050565b600080600060608486031215612bb257600080fd5b612bbb84612b13565b9250612bc960208501612b13565b9150604084013590509250925092565b60008060008060808587031215612bef57600080fd5b612bf885612b13565b9350612c0660208601612b13565b925060408501359150606085013567ffffffffffffffff811115612c2957600080fd5b8501601f81018713612c3a57600080fd5b612c4987823560208401612abb565b91505092959194509250565b60008060408385031215612c6857600080fd5b612c7183612b13565b915060208301358015158114612c8657600080fd5b809150509250929050565b60008060408385031215612ca457600080fd5b612cad83612b13565b946020939093013593505050565b60008060008060008060c08789031215612cd457600080fd5b612cdd87612b13565b95506020870135945060408701359350606087013560ff81168114612d0157600080fd5b9598949750929560808101359460a0909101359350915050565b600060208284031215612d2d57600080fd5b813561096c81613438565b600060208284031215612d4a57600080fd5b815161096c81613438565b600060208284031215612d6757600080fd5b5035919050565b600080600060608486031215612d8357600080fd5b8335925060208085013567ffffffffffffffff80821115612da357600080fd5b612daf88838901612b2f565b94506040870135915080821115612dc557600080fd5b818701915087601f830112612dd957600080fd5b813581811115612deb57612deb613422565b8060051b612dfa8582016132a7565b8281528581019085870183870188018d1015612e1557600080fd5b60009350835b85811015612e5257813587811115612e31578586fd5b612e3f8f8b838c0101612b2f565b8552509288019290880190600101612e1b565b5050809750505050505050509250925092565b60008060408385031215612e7857600080fd5b50508035926020909101359150565b600082825180855260208086019550808260051b84010181860160005b84811015612ed257601f19868403018952612ec0838351612edf565b98840198925090830190600101612ea4565b5090979650505050505050565b60008151808452612ef781602086016020860161333a565b601f01601f19169290920160200192915050565b60008151612f1d81856020860161333a565b9290920192915050565b60008451612f3981846020890161333a565b845190830190612f4d81836020890161333a565b8451910190612f6081836020880161333a565b0195945050505050565b60008451612f7c81846020890161333a565b703c7465787420783d273230302720793d2760781b9083019081528451612faa81601184016020890161333a565b7f2720666f6e742d66616d696c793d27417269616c2720666f6e742d73697a653d6011929091019182015273139a99971993903334b6361e93b13630b1b5939f60611b6031820152835161300581604584016020880161333a565b661e17ba32bc3a1f60c91b60459290910191820152604c0195945050505050565b693d913730b6b2911d101160b11b81528254600090600a908290600181811c908083168061305557607f831692505b602080841082141561307557634e487b7160e01b86526022600452602486fd5b818015613089576001811461309e576130cf565b60ff1986168a890152848a01880196506130cf565b60008c81526020902060005b868110156130c55781548c82018b01529085019083016130aa565b505087858b010196505b50505050505061312e61312161311461310e6130f38561088b60f21b815260020190565b6e1134b6b0b3b2afb230ba30911d101160891b8152600f0190565b88612f0b565b601160f91b815260010190565b607d60f81b815260010190565b9695505050505050565b7f646174613a6170706c69636174696f6e2f6a736f6e3b6261736536342c00000081526000825161317081601d85016020870161333a565b91909101601d0192915050565b6001600160a01b038581168252841660208201526040810183905260806060820181905260009061312e90830184612edf565b60208152600061096c6020830184612e87565b60208152600061096c6020830184612edf565b6040815260006131e96040830185612edf565b82810360208401526131fb8185612e87565b95945050505050565b60208082526032908201527f4552433732313a207472616e7366657220746f206e6f6e20455243373231526560408201527131b2b4bb32b91034b6b83632b6b2b73a32b960711b606082015260800190565b60208082526031908201527f4552433732313a207472616e736665722063616c6c6572206973206e6f74206f6040820152701ddb995c881b9bdc88185c1c1c9bdd9959607a1b606082015260800190565b604051601f8201601f1916810167ffffffffffffffff811182821017156132d0576132d0613422565b604052919050565b600082198211156132eb576132eb6133ca565b500190565b6000826132ff576132ff6133e0565b500490565b600081600019048311821515161561331e5761331e6133ca565b500290565b600082821015613335576133356133ca565b500390565b60005b8381101561335557818101518382015260200161333d565b838111156110ae5750506000910152565b600181811c9082168061337a57607f821691505b60208210811415611b3157634e487b7160e01b600052602260045260246000fd5b60006000198214156133af576133af6133ca565b5060010190565b6000826133c5576133c56133e0565b500690565b634e487b7160e01b600052601160045260246000fd5b634e487b7160e01b600052601260045260246000fd5b634e487b7160e01b600052602160045260246000fd5b634e487b7160e01b600052603260045260246000fd5b634e487b7160e01b600052604160045260246000fd5b6001600160e01b031981168114610a6957600080fdfe3c7376672077696474683d273234393427206865696768743d2733353233272076696577426f783d2730203020323439342033353233272066696c6c3d276e6f6e652720786d6c6e733d27687474703a2f2f7777772e77332e6f72672f323030302f737667273e203c672066696c7465723d2775726c282366696c746572305f645f313831355f323030373529273e203c7061746820643d274d3020302e35483234383056333530382e35483138342e3634324c3020333330392e373956302e355a272066696c6c3d277768697465272f3e203c7061746820643d274d3138372e31343220333330392e373956333330372e3239483138342e36343248322e35563348323437372e355633353036483138372e31343256333330392e37395a4d3138322e31343220333331322e323956333530322e31344c352e373335353620333331322e3239483138322e3134325a27207374726f6b653d272341334131413127207374726f6b652d77696474683d2735272f3e203c2f673e203c646566733e203c66696c7465722069643d2766696c746572305f645f313831355f32303037352720783d27302720793d27302e35272077696474683d273234393427206865696768743d2733353232272066696c746572556e6974733d277573657253706163654f6e5573652720636f6c6f722d696e746572706f6c6174696f6e2d66696c746572733d2773524742273e203c6665466c6f6f6420666c6f6f642d6f7061636974793d27302720726573756c743d274261636b67726f756e64496d616765466978272f3e3c6665436f6c6f724d617472697820696e3d27536f75726365416c7068612720747970653d276d6174726978272076616c7565733d2730203020302030203020302030203020302030203020302030203020302030203020302031323720302720726573756c743d2768617264416c706861272f3e203c66654f66667365742064783d273130272064793d273130272f3e3c6665476175737369616e426c757220737464446576696174696f6e3d2732272f3e203c6665436f6d706f7369746520696e323d2768617264416c70686127206f70657261746f723d276f7574272f3e203c6665436f6c6f724d617472697820747970653d276d6174726978272076616c7565733d27302030203020302030203020302030203020302030203020302030203020302030203020302e32352030272f3e203c6665426c656e64206d6f64653d276e6f726d616c2720696e323d274261636b67726f756e64496d6167654669782720726573756c743d27656666656374315f64726f70536861646f775f313831355f3230303735272f3e203c6665426c656e64206d6f64653d276e6f726d616c2720696e3d27536f75726365477261706869632720696e323d27656666656374315f64726f70536861646f775f313831355f32303037352720726573756c743d277368617065272f3e203c2f66696c7465723e3c2f646566733e4142434445464748494a4b4c4d4e4f505152535455565758595a6162636465666768696a6b6c6d6e6f707172737475767778797a303132333435363738392b2fa2646970667358221220da4a54611ebbb92a0c07cb775488bd6cbd9e7b36a7f2563bd5ec9333caecadb464736f6c63430008070033",
  "linkReferences": {},
  "deployedLinkReferences": {}
}