{
  "_format": "hh-sol-artifact-1",
  "contractName": "Whitepaper",
  "sourceName": "contracts/Whitepaper.sol",
  "abi": [
    {
      "inputs": [],
      "stateMutability": "nonpayable",
      "type": "constructor"
    },
    {
      "anonymous": false,
      "inputs": [
        {
          "indexed": true,
          "internalType": "address",
          "name": "owner",
          "type": "address"
        },
        {
          "indexed": true,
          "internalType": "address",
          "name": "approved",
          "type": "address"
        },
        {
          "indexed": true,
          "internalType": "uint256",
          "name": "tokenId",
          "type": "uint256"
        }
      ],
      "name": "Approval",
      "type": "event"
    },
    {
      "anonymous": false,
      "inputs": [
        {
          "indexed": true,
          "internalType": "address",
          "name": "owner",
          "type": "address"
        },
        {
          "indexed": true,
          "internalType": "address",
          "name": "operator",
          "type": "address"
        },
        {
          "indexed": false,
          "internalType": "bool",
          "name": "approved",
          "type": "bool"
        }
      ],
      "name": "ApprovalForAll",
      "type": "event"
    },
    {
      "anonymous": false,
      "inputs": [
        {
          "indexed": true,
          "internalType": "address",
          "name": "delegator",
          "type": "address"
        },
        {
          "indexed": true,
          "internalType": "address",
          "name": "fromDelegate",
          "type": "address"
        },
        {
          "indexed": true,
          "internalType": "address",
          "name": "toDelegate",
          "type": "address"
        }
      ],
      "name": "DelegateChanged",
      "type": "event"
    },
    {
      "anonymous": false,
      "inputs": [
        {
          "indexed": true,
          "internalType": "address",
          "name": "delegate",
          "type": "address"
        },
        {
          "indexed": false,
          "internalType": "uint256",
          "name": "previousBalance",
          "type": "uint256"
        },
        {
          "indexed": false,
          "internalType": "uint256",
          "name": "newBalance",
          "type": "uint256"
        }
      ],
      "name": "DelegateVotesChanged",
      "type": "event"
    },
    {
      "anonymous": false,
      "inputs": [
        {
          "indexed": true,
          "internalType": "address",
          "name": "previousOwner",
          "type": "address"
        },
        {
          "indexed": true,
          "internalType": "address",
          "name": "newOwner",
          "type": "address"
        }
      ],
      "name": "OwnershipTransferred",
      "type": "event"
    },
    {
      "anonymous": false,
      "inputs": [
        {
          "indexed": true,
          "internalType": "address",
          "name": "from",
          "type": "address"
        },
        {
          "indexed": true,
          "internalType": "address",
          "name": "to",
          "type": "address"
        },
        {
          "indexed": true,
          "internalType": "uint256",
          "name": "tokenId",
          "type": "uint256"
        }
      ],
      "name": "Transfer",
      "type": "event"
    },
    {
      "anonymous": false,
      "inputs": [
        {
          "indexed": false,
          "internalType": "string",
          "name": "value",
          "type": "string"
        },
        {
          "indexed": true,
          "internalType": "uint256",
          "name": "id",
          "type": "uint256"
        }
      ],
      "name": "URI",
      "type": "event"
    },
    {
      "inputs": [],
      "name": "DOMAIN_SEPARATOR",
      "outputs": [
        {
          "internalType": "bytes32",
          "name": "",
          "type": "bytes32"
        }
      ],
      "stateMutability": "view",
      "type": "function"
    },
    {
      "inputs": [
        {
          "internalType": "address",
          "name": "to",
          "type": "address"
        },
        {
          "internalType": "uint256",
          "name": "tokenId",
          "type": "uint256"
        }
      ],
      "name": "approve",
      "outputs": [],
      "stateMutability": "nonpayable",
      "type": "function"
    },
    {
      "inputs": [
        {
          "internalType": "address",
          "name": "owner",
          "type": "address"
        }
      ],
      "name": "balanceOf",
      "outputs": [
        {
          "internalType": "uint256",
          "name": "",
          "type": "uint256"
        }
      ],
      "stateMutability": "view",
      "type": "function"
    },
    {
      "inputs": [
        {
          "internalType": "uint256",
          "name": "tokenId",
          "type": "uint256"
        }
      ],
      "name": "burn",
      "outputs": [],
      "stateMutability": "nonpayable",
      "type": "function"
    },
    {
      "inputs": [
        {
          "internalType": "address",
          "name": "delegatee",
          "type": "address"
        }
      ],
      "name": "delegate",
      "outputs": [],
      "stateMutability": "nonpayable",
      "type": "function"
    },
    {
      "inputs": [
        {
          "internalType": "address",
          "name": "delegatee",
          "type": "address"
        },
        {
          "internalType": "uint256",
          "name": "nonce",
          "type": "uint256"
        },
        {
          "internalType": "uint256",
          "name": "expiry",
          "type": "uint256"
        },
        {
          "internalType": "uint8",
          "name": "v",
          "type": "uint8"
        },
        {
          "internalType": "bytes32",
          "name": "r",
          "type": "bytes32"
        },
        {
          "internalType": "bytes32",
          "name": "s",
          "type": "bytes32"
        }
      ],
      "name": "delegateBySig",
      "outputs": [],
      "stateMutability": "nonpayable",
      "type": "function"
    },
    {
      "inputs": [
        {
          "internalType": "address",
          "name": "account",
          "type": "address"
        }
      ],
      "name": "delegates",
      "outputs": [
        {
          "internalType": "address",
          "name": "",
          "type": "address"
        }
      ],
      "stateMutability": "view",
      "type": "function"
    },
    {
      "inputs": [
        {
          "internalType": "uint256",
          "name": "tokenId",
          "type": "uint256"
        }
      ],
      "name": "getApproved",
      "outputs": [
        {
          "internalType": "address",
          "name": "",
          "type": "address"
        }
      ],
      "stateMutability": "view",
      "type": "function"
    },
    {
      "inputs": [
        {
          "internalType": "uint256",
          "name": "blockNumber",
          "type": "uint256"
        }
      ],
      "name": "getPastTotalSupply",
      "outputs": [
        {
          "internalType": "uint256",
          "name": "",
          "type": "uint256"
        }
      ],
      "stateMutability": "view",
      "type": "function"
    },
    {
      "inputs": [
        {
          "internalType": "address",
          "name": "account",
          "type": "address"
        },
        {
          "internalType": "uint256",
          "name": "blockNumber",
          "type": "uint256"
        }
      ],
      "name": "getPastVotes",
      "outputs": [
        {
          "internalType": "uint256",
          "name": "",
          "type": "uint256"
        }
      ],
      "stateMutability": "view",
      "type": "function"
    },
    {
      "inputs": [
        {
          "internalType": "uint256",
          "name": "_tokenId",
          "type": "uint256"
        }
      ],
      "name": "getText",
      "outputs": [
        {
          "internalType": "string[]",
          "name": "",
          "type": "string[]"
        }
      ],
      "stateMutability": "view",
      "type": "function"
    },
    {
      "inputs": [
        {
          "internalType": "address",
          "name": "account",
          "type": "address"
        }
      ],
      "name": "getVotes",
      "outputs": [
        {
          "internalType": "uint256",
          "name": "",
          "type": "uint256"
        }
      ],
      "stateMutability": "view",
      "type": "function"
    },
    {
      "inputs": [
        {
          "internalType": "address",
          "name": "owner",
          "type": "address"
        },
        {
          "internalType": "address",
          "name": "operator",
          "type": "address"
        }
      ],
      "name": "isApprovedForAll",
      "outputs": [
        {
          "internalType": "bool",
          "name": "",
          "type": "bool"
        }
      ],
      "stateMutability": "view",
      "type": "function"
    },
    {
      "inputs": [
        {
          "internalType": "address",
          "name": "to",
          "type": "address"
        }
      ],
      "name": "mint",
      "outputs": [],
      "stateMutability": "nonpayable",
      "type": "function"
    },
    {
      "inputs": [],
      "name": "mintPrice",
      "outputs": [
        {
          "internalType": "uint256",
          "name": "",
          "type": "uint256"
        }
      ],
      "stateMutability": "nonpayable",
      "type": "function"
    },
    {
      "inputs": [],
      "name": "name",
      "outputs": [
        {
          "internalType": "string",
          "name": "",
          "type": "string"
        }
      ],
      "stateMutability": "view",
      "type": "function"
    },
    {
      "inputs": [
        {
          "internalType": "address",
          "name": "owner",
          "type": "address"
        }
      ],
      "name": "nonces",
      "outputs": [
        {
          "internalType": "uint256",
          "name": "",
          "type": "uint256"
        }
      ],
      "stateMutability": "view",
      "type": "function"
    },
    {
      "inputs": [],
      "name": "owner",
      "outputs": [
        {
          "internalType": "address",
          "name": "",
          "type": "address"
        }
      ],
      "stateMutability": "view",
      "type": "function"
    },
    {
      "inputs": [
        {
          "internalType": "uint256",
          "name": "tokenId",
          "type": "uint256"
        }
      ],
      "name": "ownerOf",
      "outputs": [
        {
          "internalType": "address",
          "name": "",
          "type": "address"
        }
      ],
      "stateMutability": "view",
      "type": "function"
    },
    {
      "inputs": [
        {
          "internalType": "uint256",
          "name": "_tokenId",
          "type": "uint256"
        }
      ],
      "name": "price",
      "outputs": [
        {
          "internalType": "uint256",
          "name": "",
          "type": "uint256"
        }
      ],
      "stateMutability": "view",
      "type": "function"
    },
    {
      "inputs": [],
      "name": "renounceOwnership",
      "outputs": [],
      "stateMutability": "nonpayable",
      "type": "function"
    },
    {
      "inputs": [
        {
          "internalType": "uint256",
          "name": "_tokenId",
          "type": "uint256"
        },
        {
          "internalType": "uint256",
          "name": "_salePrice",
          "type": "uint256"
        }
      ],
      "name": "royaltyInfo",
      "outputs": [
        {
          "internalType": "address",
          "name": "receiver",
          "type": "address"
        },
        {
          "internalType": "uint256",
          "name": "royaltyAmount",
          "type": "uint256"
        }
      ],
      "stateMutability": "view",
      "type": "function"
    },
    {
      "inputs": [
        {
          "internalType": "address",
          "name": "from",
          "type": "address"
        },
        {
          "internalType": "address",
          "name": "to",
          "type": "address"
        },
        {
          "internalType": "uint256",
          "name": "tokenId",
          "type": "uint256"
        }
      ],
      "name": "safeTransferFrom",
      "outputs": [],
      "stateMutability": "nonpayable",
      "type": "function"
    },
    {
      "inputs": [
        {
          "internalType": "address",
          "name": "from",
          "type": "address"
        },
        {
          "internalType": "address",
          "name": "to",
          "type": "address"
        },
        {
          "internalType": "uint256",
          "name": "tokenId",
          "type": "uint256"
        },
        {
          "internalType": "bytes",
          "name": "_data",
          "type": "bytes"
        }
      ],
      "name": "safeTransferFrom",
      "outputs": [],
      "stateMutability": "nonpayable",
      "type": "function"
    },
    {
      "inputs": [
        {
          "internalType": "address",
          "name": "operator",
          "type": "address"
        },
        {
          "internalType": "bool",
          "name": "approved",
          "type": "bool"
        }
      ],
      "name": "setApprovalForAll",
      "outputs": [],
      "stateMutability": "nonpayable",
      "type": "function"
    },
    {
      "inputs": [
        {
          "internalType": "bytes4",
          "name": "interfaceId",
          "type": "bytes4"
        }
      ],
      "name": "supportsInterface",
      "outputs": [
        {
          "internalType": "bool",
          "name": "",
          "type": "bool"
        }
      ],
      "stateMutability": "view",
      "type": "function"
    },
    {
      "inputs": [],
      "name": "symbol",
      "outputs": [
        {
          "internalType": "string",
          "name": "",
          "type": "string"
        }
      ],
      "stateMutability": "view",
      "type": "function"
    },
    {
      "inputs": [
        {
          "internalType": "uint256",
          "name": "tokenId",
          "type": "uint256"
        }
      ],
      "name": "tokenURI",
      "outputs": [
        {
          "internalType": "string",
          "name": "",
          "type": "string"
        }
      ],
      "stateMutability": "view",
      "type": "function"
    },
    {
      "inputs": [
        {
          "internalType": "address",
          "name": "from",
          "type": "address"
        },
        {
          "internalType": "address",
          "name": "to",
          "type": "address"
        },
        {
          "internalType": "uint256",
          "name": "tokenId",
          "type": "uint256"
        }
      ],
      "name": "transferFrom",
      "outputs": [],
      "stateMutability": "nonpayable",
      "type": "function"
    },
    {
      "inputs": [
        {
          "internalType": "address",
          "name": "newOwner",
          "type": "address"
        }
      ],
      "name": "transferOwnership",
      "outputs": [],
      "stateMutability": "nonpayable",
      "type": "function"
    },
    {
      "inputs": [
        {
          "internalType": "uint256",
          "name": "tokenId",
          "type": "uint256"
        },
        {
          "internalType": "string[]",
          "name": "_text",
          "type": "string[]"
        }
      ],
      "name": "typewrite",
      "outputs": [],
      "stateMutability": "nonpayable",
      "type": "function"
    }
  ],
  "bytecode": "0x610140604052600a600d556103e8600e55600a600f5560646010553480156200002757600080fd5b506040518060400160405280600a8152602001692bb434ba32a830b832b960b11b815250604051806040016040528060038152602001620312e360ec1b8152506040518060400160405280600a8152602001692bb434ba32a830b832b960b11b81525060405180604001604052806002815260200161057560f41b8152508160009080519060200190620000bd929190620001e1565b508051620000d3906001906020840190620001e1565b505050620000f0620000ea6200018b60201b60201c565b6200018f565b815160208084019190912082518383012060e08290526101008190524660a0818152604080517f8b73c3c69bb8fe3d512ecc4cf759cc79239f7b179b0ffacaa9a75d522b39400f81880181905281830187905260608201869052608082019490945230818401528151808203909301835260c00190528051940193909320919290916080523060601b60c0526101205250620002c492505050565b3390565b600780546001600160a01b038381166001600160a01b0319831681179093556040519116919082907f8be0079c531659141344cd1fd0a4f28419497f9722a3daafe3b4186f6b6457e090600090a35050565b828054620001ef9062000287565b90600052602060002090601f0160209004810192826200021357600085556200025e565b82601f106200022e57805160ff19168380011785556200025e565b828001600101855582156200025e579182015b828111156200025e57825182559160200191906001019062000241565b506200026c92915062000270565b5090565b5b808211156200026c576000815560010162000271565b600181811c908216806200029c57607f821691505b60208210811415620002be57634e487b7160e01b600052602260045260246000fd5b50919050565b60805160a05160c05160601c60e0516101005161012051613518620003176000396000611354015260006113a30152600061137e015260006112d7015260006113010152600061132b01526135186000f3fe608060405234801561001057600080fd5b50600436106101e55760003560e01c80636a6278421161010f5780639ab24eb0116100a2578063c3cda52011610071578063c3cda52014610441578063c87b56dd14610454578063e985e9c514610467578063f2fde38b146104a357600080fd5b80639ab24eb0146103f5578063a22cb46514610408578063b88d4fde1461041b578063bd6450831461042e57600080fd5b80637f4ef9d4116100de5780637f4ef9d4146103a95780638da5cb5b146103c95780638e539e8c146103da57806395d89b41146103ed57600080fd5b80636a6278421461036857806370a082311461037b578063715018a61461038e5780637ecebe001461039657600080fd5b80633644e51511610187578063587cde1e11610156578063587cde1e1461030e5780635c19a95c1461033a5780636352211e1461034d5780636817c76c1461036057600080fd5b80633644e515146102cd5780633a46b1a8146102d557806342842e0e146102e857806342966c68146102fb57600080fd5b8063095ea7b3116101c3578063095ea7b31461025257806323b872dd1461026757806326a49e371461027a5780632a55205a1461029b57600080fd5b806301ffc9a7146101ea57806306fdde0314610212578063081812fc14610227575b600080fd5b6101fd6101f83660046129ea565b6104b6565b60405190151581526020015b60405180910390f35b61021a610508565b6040516102099190612e02565b61023a610235366004612a24565b61059a565b6040516001600160a01b039091168152602001610209565b610265610260366004612960565b610634565b005b61026561027536600461286c565b61074a565b61028d610288366004612a24565b61077c565b604051908152602001610209565b6102ae6102a9366004612b26565b610794565b604080516001600160a01b039093168352602083019190915201610209565b61028d6107ce565b61028d6102e3366004612960565b6107dd565b6102656102f636600461286c565b610806565b610265610309366004612a24565b610821565b61023a61031c36600461281e565b6001600160a01b039081166000908152600860205260409020541690565b61026561034836600461281e565b61089b565b61023a61035b366004612a24565b6108aa565b61028d610921565b61026561037636600461281e565b61093a565b61028d61038936600461281e565b61095f565b6102656109e6565b61028d6103a436600461281e565b610a4c565b6103bc6103b7366004612a24565b610a6a565b6040516102099190612da0565b6007546001600160a01b031661023a565b61028d6103e8366004612a24565b610b56565b61021a610bb2565b61028d61040336600461281e565b610bc1565b610265610416366004612924565b610be2565b6102656104293660046128a8565b610bed565b61026561043c366004612a3d565b610c25565b61026561044f36600461298a565b610d70565b61021a610462366004612a24565b610e9d565b6101fd610475366004612839565b6001600160a01b03918216600090815260056020908152604080832093909416825291909152205460ff1690565b6102656104b136600461281e565b610efb565b60006001600160e01b031982166380ac58cd60e01b14806104e757506001600160e01b03198216635b5e139f60e01b145b8061050257506301ffc9a760e01b6001600160e01b03198316145b92915050565b60606000805461051790612f77565b80601f016020809104026020016040519081016040528092919081815260200182805461054390612f77565b80156105905780601f1061056557610100808354040283529160200191610590565b820191906000526020600020905b81548152906001019060200180831161057357829003601f168201915b5050505050905090565b6000818152600260205260408120546001600160a01b03166106185760405162461bcd60e51b815260206004820152602c60248201527f4552433732313a20617070726f76656420717565727920666f72206e6f6e657860448201526b34b9ba32b73a103a37b5b2b760a11b60648201526084015b60405180910390fd5b506000908152600460205260409020546001600160a01b031690565b600061063f826108aa565b9050806001600160a01b0316836001600160a01b031614156106ad5760405162461bcd60e51b815260206004820152602160248201527f4552433732313a20617070726f76616c20746f2063757272656e74206f776e656044820152603960f91b606482015260840161060f565b336001600160a01b03821614806106c957506106c98133610475565b61073b5760405162461bcd60e51b815260206004820152603860248201527f4552433732313a20617070726f76652063616c6c6572206973206e6f74206f7760448201527f6e6572206e6f7220617070726f76656420666f7220616c6c0000000000000000606482015260840161060f565b6107458383610fc3565b505050565b610755335b82611031565b6107715760405162461bcd60e51b815260040161060f90612e67565b610745838383611128565b6000600e54821161078f575050600d5490565b919050565b600080806127106107a6606486612f15565b6107b09190612f01565b90506107c46007546001600160a01b031690565b9590945092505050565b60006107d86112ca565b905090565b6001600160a01b03821660009081526009602052604081206107ff90836113f1565b9392505050565b61074583838360405180602001604052806000815250610bed565b61082a3361074f565b61088f5760405162461bcd60e51b815260206004820152603060248201527f4552433732314275726e61626c653a2063616c6c6572206973206e6f74206f7760448201526f1b995c881b9bdc88185c1c1c9bdd995960821b606482015260840161060f565b61089881611500565b50565b336108a68183611509565b5050565b6000818152600260205260408120546001600160a01b0316806105025760405162461bcd60e51b815260206004820152602960248201527f4552433732313a206f776e657220717565727920666f72206e6f6e657869737460448201526832b73a103a37b5b2b760b91b606482015260840161060f565b60006107d861092f600c5490565b610288906001612ee9565b610948600c80546001019055565b6000610953600c5490565b90506108a6828261157b565b60006001600160a01b0382166109ca5760405162461bcd60e51b815260206004820152602a60248201527f4552433732313a2062616c616e636520717565727920666f7220746865207a65604482015269726f206164647265737360b01b606482015260840161060f565b506001600160a01b031660009081526003602052604090205490565b6007546001600160a01b03163314610a405760405162461bcd60e51b815260206004820181905260248201527f4f776e61626c653a2063616c6c6572206973206e6f7420746865206f776e6572604482015260640161060f565b610a4a6000611595565b565b6001600160a01b0381166000908152600b6020526040812054610502565b606060136000838152602001908152602001600020805480602002602001604051908101604052809291908181526020016000905b82821015610b4b578382906000526020600020018054610abe90612f77565b80601f0160208091040260200160405190810160405280929190818152602001828054610aea90612f77565b8015610b375780601f10610b0c57610100808354040283529160200191610b37565b820191906000526020600020905b815481529060010190602001808311610b1a57829003601f168201915b505050505081526020019060010190610a9f565b505050509050919050565b6000438210610ba75760405162461bcd60e51b815260206004820152601a60248201527f566f7465733a20626c6f636b206e6f7420796574206d696e6564000000000000604482015260640161060f565b610502600a836113f1565b60606001805461051790612f77565b6001600160a01b0381166000908152600960205260408120610502906115e7565b6108a6338383611643565b610bf73383611031565b610c135760405162461bcd60e51b815260040161060f90612e67565b610c1f84848484611712565b50505050565b610c2e826108aa565b6001600160a01b0316336001600160a01b031614610c9c5760405162461bcd60e51b815260206004820152602560248201527f4f6e6c7920746865206f776e65722063616e2063616c6c20746869732066756e60448201526431ba34b7b760d91b606482015260840161060f565b60008281526012602052604090205460ff1615610cf35760405162461bcd60e51b81526020600482015260156024820152742830b832b91020b63932b0b23c902bb934ba3a32b760591b604482015260640161060f565b60008281526013602090815260409091208251610d129284019061266a565b506000828152601260205260409020805460ff19166001179055817f6bb7ff708619ba0610cba295a58592e0451dee2622938c8755667688daf3529b610d5782610e9d565b604051610d649190612e02565b60405180910390a25050565b83421115610dc05760405162461bcd60e51b815260206004820152601860248201527f566f7465733a207369676e617475726520657870697265640000000000000000604482015260640161060f565b604080517fe48329057bfd03d55e49b547132e39cffd9c1820ad7b9d4c5307691425d15adf60208201526001600160a01b038816918101919091526060810186905260808101859052600090610e3a90610e329060a00160405160208183030381529060405280519060200120611745565b858585611793565b9050610e45816117bb565b8614610e8a5760405162461bcd60e51b8152602060048201526014602482015273566f7465733a20696e76616c6964206e6f6e636560601b604482015260640161060f565b610e948188611509565b50505050505050565b60606000610ed1610ead846117e3565b604051602001610ebd9190612ca4565b6040516020818303038152906040526119cc565b905080604051602001610ee49190612d1e565b604051602081830303815290604052915050919050565b6007546001600160a01b03163314610f555760405162461bcd60e51b815260206004820181905260248201527f4f776e61626c653a2063616c6c6572206973206e6f7420746865206f776e6572604482015260640161060f565b6001600160a01b038116610fba5760405162461bcd60e51b815260206004820152602660248201527f4f776e61626c653a206e6577206f776e657220697320746865207a65726f206160448201526564647265737360d01b606482015260840161060f565b61089881611595565b600081815260046020526040902080546001600160a01b0319166001600160a01b0384169081179091558190610ff8826108aa565b6001600160a01b03167f8c5be1e5ebec7d5bd14f71427d1e84f3dd0314c0f7b2291e5b200ac8c7c3b92560405160405180910390a45050565b6000818152600260205260408120546001600160a01b03166110aa5760405162461bcd60e51b815260206004820152602c60248201527f4552433732313a206f70657261746f7220717565727920666f72206e6f6e657860448201526b34b9ba32b73a103a37b5b2b760a11b606482015260840161060f565b60006110b5836108aa565b9050806001600160a01b0316846001600160a01b031614806110fc57506001600160a01b0380821660009081526005602090815260408083209388168352929052205460ff165b806111205750836001600160a01b03166111158461059a565b6001600160a01b0316145b949350505050565b826001600160a01b031661113b826108aa565b6001600160a01b03161461119f5760405162461bcd60e51b815260206004820152602560248201527f4552433732313a207472616e736665722066726f6d20696e636f72726563742060448201526437bbb732b960d91b606482015260840161060f565b6001600160a01b0382166112015760405162461bcd60e51b8152602060048201526024808201527f4552433732313a207472616e7366657220746f20746865207a65726f206164646044820152637265737360e01b606482015260840161060f565b61120c600082610fc3565b6001600160a01b0383166000908152600360205260408120805460019290611235908490612f34565b90915550506001600160a01b0382166000908152600360205260408120805460019290611263908490612ee9565b909155505060008181526002602052604080822080546001600160a01b0319166001600160a01b0386811691821790925591518493918716917fddf252ad1be2c89b69c2b068fc378daa952ba7f163c4a11628f55a4df523b3ef91a4610745838383611b32565b6000306001600160a01b037f00000000000000000000000000000000000000000000000000000000000000001614801561132357507f000000000000000000000000000000000000000000000000000000000000000046145b1561134d57507f000000000000000000000000000000000000000000000000000000000000000090565b50604080517f00000000000000000000000000000000000000000000000000000000000000006020808301919091527f0000000000000000000000000000000000000000000000000000000000000000828401527f000000000000000000000000000000000000000000000000000000000000000060608301524660808301523060a0808401919091528351808403909101815260c0909201909252805191012090565b60004382106114425760405162461bcd60e51b815260206004820181905260248201527f436865636b706f696e74733a20626c6f636b206e6f7420796574206d696e6564604482015260640161060f565b825460005b818110156114a757600061145b8284611b3d565b9050848660000182815481106114735761147361301d565b60009182526020909120015463ffffffff161115611493578092506114a1565b61149e816001612ee9565b91505b50611447565b81156114eb57846114b9600184612f34565b815481106114c9576114c961301d565b60009182526020909120015464010000000090046001600160e01b03166114ee565b60005b6001600160e01b031695945050505050565b61089881611b58565b6001600160a01b0382811660008181526008602052604080822080548686166001600160a01b0319821681179092559151919094169392849290917f3134e8a2e6d97e929a7e54011ea5485d7d196dd5f0ba4d4ef95803e8e3fc257f9190a4610745818361157686611b98565b611ba3565b6108a6828260405180602001604052806000815250611ce0565b600780546001600160a01b038381166001600160a01b0319831681179093556040519116919082907f8be0079c531659141344cd1fd0a4f28419497f9722a3daafe3b4186f6b6457e090600090a35050565b8054600090801561163057826115fe600183612f34565b8154811061160e5761160e61301d565b60009182526020909120015464010000000090046001600160e01b0316611633565b60005b6001600160e01b03169392505050565b816001600160a01b0316836001600160a01b031614156116a55760405162461bcd60e51b815260206004820152601960248201527f4552433732313a20617070726f766520746f2063616c6c657200000000000000604482015260640161060f565b6001600160a01b03838116600081815260056020908152604080832094871680845294825291829020805460ff191686151590811790915591519182527f17307eab39ab6107e8899845ad3d59bd9653f200f220920489ca2b5937696c31910160405180910390a3505050565b61171d848484611128565b61172984848484611d13565b610c1f5760405162461bcd60e51b815260040161060f90612e15565b60006105026117526112ca565b8360405161190160f01b6020820152602281018390526042810182905260009060620160405160208183030381529060405280519060200120905092915050565b60008060006117a487878787611e1d565b915091506117b181611f0a565b5095945050505050565b6001600160a01b0381166000908152600b602052604090208054600181018255905b50919050565b606080606080606060405180610480016040528061044381526020016130606104439139925060005b60008781526013602052604090205481101561197b576060611842611832836064612f15565b61183d9060fa612ee9565b6120c5565b6040516020016118529190612c27565b60405160208183030381529060405290506000601360008a815260200190815260200160002083815481106118895761188961301d565b90600052602060002001805461189e90612f77565b80601f01602080910402602001604051908101604052809291908181526020018280546118ca90612f77565b80156119175780601f106118ec57610100808354040283529160200191611917565b820191906000526020600020905b8154815290600101906020018083116118fa57829003601f168201915b505050505090508181604051602001611931929190612be6565b60405160208183030381529060405291508682604051602001611955929190612b74565b60405160208183030381529060405296505050808061197390612fac565b91505061180c565b50604051806040016040528060068152602001651e17b9bb339f60d11b81525091508284836040516020016119b293929190612ba3565b60408051601f198184030181529190529695505050505050565b60608151600014156119ec57505060408051602081019091526000815290565b60006040518060600160405280604081526020016134a36040913990506000600384516002611a1b9190612ee9565b611a259190612f01565b611a30906004612f15565b90506000611a3f826020612ee9565b67ffffffffffffffff811115611a5757611a57613033565b6040519080825280601f01601f191660200182016040528015611a81576020820181803683370190505b509050818152600183018586518101602084015b81831015611aed576003830192508251603f8160121c168501518253600182019150603f81600c1c168501518253600182019150603f8160061c168501518253600182019150603f8116850151825350600101611a95565b600389510660018114611b075760028114611b1857611b24565b613d3d60f01b600119830152611b24565b603d60f81b6000198301525b509398975050505050505050565b6107458383836121c3565b6000611b4c6002848418612f01565b6107ff90848416612ee9565b611b61816121cf565b60008181526006602052604090208054611b7a90612f77565b159050610898576000818152600660205260408120610898916126c3565b60006105028261095f565b816001600160a01b0316836001600160a01b031614158015611bc55750600081115b15610745576001600160a01b03831615611c53576001600160a01b03831660009081526009602052604081208190611c00906122728561227e565b91509150846001600160a01b03167fdec2bacdd2f05b59de34da9b523dff8be42e5e38e818c82fdb0bae774387a7248383604051611c48929190918252602082015260400190565b60405180910390a250505b6001600160a01b03821615610745576001600160a01b03821660009081526009602052604081208190611c89906122ac8561227e565b91509150836001600160a01b03167fdec2bacdd2f05b59de34da9b523dff8be42e5e38e818c82fdb0bae774387a7248383604051611cd1929190918252602082015260400190565b60405180910390a25050505050565b611cea83836122b8565b611cf76000848484611d13565b6107455760405162461bcd60e51b815260040161060f90612e15565b60006001600160a01b0384163b15611e1557604051630a85bd0160e11b81526001600160a01b0385169063150b7a0290611d57903390899088908890600401612d63565b602060405180830381600087803b158015611d7157600080fd5b505af1925050508015611da1575060408051601f3d908101601f19168201909252611d9e91810190612a07565b60015b611dfb573d808015611dcf576040519150601f19603f3d011682016040523d82523d6000602084013e611dd4565b606091505b508051611df35760405162461bcd60e51b815260040161060f90612e15565b805181602001fd5b6001600160e01b031916630a85bd0160e11b149050611120565b506001611120565b6000807f7fffffffffffffffffffffffffffffff5d576e7357a4501ddfe92f46681b20a0831115611e545750600090506003611f01565b8460ff16601b14158015611e6c57508460ff16601c14155b15611e7d5750600090506004611f01565b6040805160008082526020820180845289905260ff881692820192909252606081018690526080810185905260019060a0016020604051602081039080840390855afa158015611ed1573d6000803e3d6000fd5b5050604051601f1901519150506001600160a01b038116611efa57600060019250925050611f01565b9150600090505b94509492505050565b6000816004811115611f1e57611f1e613007565b1415611f275750565b6001816004811115611f3b57611f3b613007565b1415611f895760405162461bcd60e51b815260206004820152601860248201527f45434453413a20696e76616c6964207369676e61747572650000000000000000604482015260640161060f565b6002816004811115611f9d57611f9d613007565b1415611feb5760405162461bcd60e51b815260206004820152601f60248201527f45434453413a20696e76616c6964207369676e6174757265206c656e67746800604482015260640161060f565b6003816004811115611fff57611fff613007565b14156120585760405162461bcd60e51b815260206004820152602260248201527f45434453413a20696e76616c6964207369676e6174757265202773272076616c604482015261756560f01b606482015260840161060f565b600481600481111561206c5761206c613007565b14156108985760405162461bcd60e51b815260206004820152602260248201527f45434453413a20696e76616c6964207369676e6174757265202776272076616c604482015261756560f01b606482015260840161060f565b6060816120e95750506040805180820190915260018152600360fc1b602082015290565b8160005b811561211357806120fd81612fac565b915061210c9050600a83612f01565b91506120ed565b60008167ffffffffffffffff81111561212e5761212e613033565b6040519080825280601f01601f191660200182016040528015612158576020820181803683370190505b5090505b84156111205761216d600183612f34565b915061217a600a86612fc7565b612185906030612ee9565b60f81b81838151811061219a5761219a61301d565b60200101906001600160f81b031916908160001a9053506121bc600a86612f01565b945061215c565b61074583836001612402565b60006121da826108aa565b90506121e7600083610fc3565b6001600160a01b0381166000908152600360205260408120805460019290612210908490612f34565b909155505060008281526002602052604080822080546001600160a01b0319169055518391906001600160a01b038416907fddf252ad1be2c89b69c2b068fc378daa952ba7f163c4a11628f55a4df523b3ef908390a46108a681600084611b32565b60006107ff8284612f34565b6000806122a08561229b612291886115e7565b868863ffffffff16565b612472565b91509150935093915050565b60006107ff8284612ee9565b6001600160a01b03821661230e5760405162461bcd60e51b815260206004820181905260248201527f4552433732313a206d696e7420746f20746865207a65726f2061646472657373604482015260640161060f565b6000818152600260205260409020546001600160a01b0316156123735760405162461bcd60e51b815260206004820152601c60248201527f4552433732313a20746f6b656e20616c7265616479206d696e74656400000000604482015260640161060f565b6001600160a01b038216600090815260036020526040812080546001929061239c908490612ee9565b909155505060008181526002602052604080822080546001600160a01b0319166001600160a01b03861690811790915590518392907fddf252ad1be2c89b69c2b068fc378daa952ba7f163c4a11628f55a4df523b3ef908290a46108a660008383611b32565b6001600160a01b0383166124215761241e600a6122ac8361227e565b50505b6001600160a01b0382166124405761243d600a6122728361227e565b50505b6001600160a01b0383811660009081526008602052604080822054858416835291205461074592918216911683611ba3565b8154600090819081612483866115e7565b90506000821180156124c15750438661249d600185612f34565b815481106124ad576124ad61301d565b60009182526020909120015463ffffffff16145b15612521576124cf85612598565b866124db600185612f34565b815481106124eb576124eb61301d565b9060005260206000200160000160046101000a8154816001600160e01b0302191690836001600160e01b0316021790555061258f565b85600001604051806040016040528061253943612605565b63ffffffff16815260200161254d88612598565b6001600160e01b0390811690915282546001810184556000938452602093849020835194909301519091166401000000000263ffffffff909316929092179101555b95939450505050565b60006001600160e01b038211156126015760405162461bcd60e51b815260206004820152602760248201527f53616665436173743a2076616c756520646f65736e27742066697420696e20326044820152663234206269747360c81b606482015260840161060f565b5090565b600063ffffffff8211156126015760405162461bcd60e51b815260206004820152602660248201527f53616665436173743a2076616c756520646f65736e27742066697420696e203360448201526532206269747360d01b606482015260840161060f565b8280548282559060005260206000209081019282156126b7579160200282015b828111156126b757825180516126a79184916020909101906126fd565b509160200191906001019061268a565b5061260192915061277d565b5080546126cf90612f77565b6000825580601f106126df575050565b601f016020900490600052602060002090810190610898919061279a565b82805461270990612f77565b90600052602060002090601f01602090048101928261272b5760008555612771565b82601f1061274457805160ff1916838001178555612771565b82800160010185558215612771579182015b82811115612771578251825591602001919060010190612756565b5061260192915061279a565b8082111561260157600061279182826126c3565b5060010161277d565b5b80821115612601576000815560010161279b565b600067ffffffffffffffff8311156127c9576127c9613033565b6127dc601f8401601f1916602001612eb8565b90508281528383830111156127f057600080fd5b828260208301376000602084830101529392505050565b80356001600160a01b038116811461078f57600080fd5b60006020828403121561283057600080fd5b6107ff82612807565b6000806040838503121561284c57600080fd5b61285583612807565b915061286360208401612807565b90509250929050565b60008060006060848603121561288157600080fd5b61288a84612807565b925061289860208501612807565b9150604084013590509250925092565b600080600080608085870312156128be57600080fd5b6128c785612807565b93506128d560208601612807565b925060408501359150606085013567ffffffffffffffff8111156128f857600080fd5b8501601f8101871361290957600080fd5b612918878235602084016127af565b91505092959194509250565b6000806040838503121561293757600080fd5b61294083612807565b91506020830135801515811461295557600080fd5b809150509250929050565b6000806040838503121561297357600080fd5b61297c83612807565b946020939093013593505050565b60008060008060008060c087890312156129a357600080fd5b6129ac87612807565b95506020870135945060408701359350606087013560ff811681146129d057600080fd5b9598949750929560808101359460a0909101359350915050565b6000602082840312156129fc57600080fd5b81356107ff81613049565b600060208284031215612a1957600080fd5b81516107ff81613049565b600060208284031215612a3657600080fd5b5035919050565b6000806040808486031215612a5157600080fd5b8335925060208085013567ffffffffffffffff80821115612a7157600080fd5b818701915087601f830112612a8557600080fd5b813581811115612a9757612a97613033565b8060051b612aa6858201612eb8565b8281528581019085870183870188018d1015612ac157600080fd5b600093505b84841015612b1357803586811115612add57600080fd5b8701603f81018e13612aee57600080fd5b612afe8e8a8301358c84016127af565b84525060019390930192918701918701612ac6565b5080985050505050505050509250929050565b60008060408385031215612b3957600080fd5b50508035926020909101359150565b60008151808452612b60816020860160208601612f4b565b601f01601f19169290920160200192915050565b60008351612b86818460208801612f4b565b835190830190612b9a818360208801612f4b565b01949350505050565b60008451612bb5818460208901612f4b565b845190830190612bc9818360208901612f4b565b8451910190612bdc818360208801612f4b565b0195945050505050565b60008351612bf8818460208801612f4b565b835190830190612c0c818360208801612f4b565b661e17ba32bc3a1f60c91b9101908152600701949350505050565b703c7465787420783d273230302720793d2760781b815260008251612c53816011850160208701612f4b565b7f2720666f6e742d66616d696c793d27417269616c2720666f6e742d73697a653d601193909101928301525073139a99971993903334b6361e93b13630b1b5939f60611b6031820152604501919050565b693d913730b6b2911d101160b11b815265746573744d4560d01b600a82015261088b60f21b60108201526e1134b6b0b3b2afb230ba30911d101160891b60128201528151600090612cfc816021850160208701612f4b565b601160f91b6021939091019283015250607d60f81b6022820152602301919050565b7f646174613a6170706c69636174696f6e2f6a736f6e3b6261736536342c000000815260008251612d5681601d850160208701612f4b565b91909101601d0192915050565b6001600160a01b0385811682528416602082015260408101839052608060608201819052600090612d9690830184612b48565b9695505050505050565b6000602080830181845280855180835260408601915060408160051b870101925083870160005b82811015612df557603f19888603018452612de3858351612b48565b94509285019290850190600101612dc7565b5092979650505050505050565b6020815260006107ff6020830184612b48565b60208082526032908201527f4552433732313a207472616e7366657220746f206e6f6e20455243373231526560408201527131b2b4bb32b91034b6b83632b6b2b73a32b960711b606082015260800190565b60208082526031908201527f4552433732313a207472616e736665722063616c6c6572206973206e6f74206f6040820152701ddb995c881b9bdc88185c1c1c9bdd9959607a1b606082015260800190565b604051601f8201601f1916810167ffffffffffffffff81118282101715612ee157612ee1613033565b604052919050565b60008219821115612efc57612efc612fdb565b500190565b600082612f1057612f10612ff1565b500490565b6000816000190483118215151615612f2f57612f2f612fdb565b500290565b600082821015612f4657612f46612fdb565b500390565b60005b83811015612f66578181015183820152602001612f4e565b83811115610c1f5750506000910152565b600181811c90821680612f8b57607f821691505b602082108114156117dd57634e487b7160e01b600052602260045260246000fd5b6000600019821415612fc057612fc0612fdb565b5060010190565b600082612fd657612fd6612ff1565b500690565b634e487b7160e01b600052601160045260246000fd5b634e487b7160e01b600052601260045260246000fd5b634e487b7160e01b600052602160045260246000fd5b634e487b7160e01b600052603260045260246000fd5b634e487b7160e01b600052604160045260246000fd5b6001600160e01b03198116811461089857600080fdfe3c7376672077696474683d273234393427206865696768743d2733353233272076696577426f783d2730203020323439342033353233272066696c6c3d276e6f6e652720786d6c6e733d27687474703a2f2f7777772e77332e6f72672f323030302f737667273e203c672066696c7465723d2775726c282366696c746572305f645f313831355f323030373529273e203c7061746820643d274d3020302e35483234383056333530382e35483138342e3634324c3020333330392e373956302e355a272066696c6c3d277768697465272f3e203c7061746820643d274d3138372e31343220333330392e373956333330372e3239483138342e36343248322e35563348323437372e355633353036483138372e31343256333330392e37395a4d3138322e31343220333331322e323956333530322e31344c352e373335353620333331322e3239483138322e3134325a27207374726f6b653d272341334131413127207374726f6b652d77696474683d2735272f3e203c2f673e203c646566733e203c66696c7465722069643d2766696c746572305f645f313831355f32303037352720783d27302720793d27302e35272077696474683d273234393427206865696768743d2733353232272066696c746572556e6974733d277573657253706163654f6e5573652720636f6c6f722d696e746572706f6c6174696f6e2d66696c746572733d2773524742273e203c6665466c6f6f6420666c6f6f642d6f7061636974793d27302720726573756c743d274261636b67726f756e64496d616765466978272f3e3c6665436f6c6f724d617472697820696e3d27536f75726365416c7068612720747970653d276d6174726978272076616c7565733d2730203020302030203020302030203020302030203020302030203020302030203020302031323720302720726573756c743d2768617264416c706861272f3e203c66654f66667365742064783d273130272064793d273130272f3e3c6665476175737369616e426c757220737464446576696174696f6e3d2732272f3e203c6665436f6d706f7369746520696e323d2768617264416c70686127206f70657261746f723d276f7574272f3e203c6665436f6c6f724d617472697820747970653d276d6174726978272076616c7565733d27302030203020302030203020302030203020302030203020302030203020302030203020302e32352030272f3e203c6665426c656e64206d6f64653d276e6f726d616c2720696e323d274261636b67726f756e64496d6167654669782720726573756c743d27656666656374315f64726f70536861646f775f313831355f3230303735272f3e203c6665426c656e64206d6f64653d276e6f726d616c2720696e3d27536f75726365477261706869632720696e323d27656666656374315f64726f70536861646f775f313831355f32303037352720726573756c743d277368617065272f3e203c2f66696c7465723e3c2f646566733e4142434445464748494a4b4c4d4e4f505152535455565758595a6162636465666768696a6b6c6d6e6f707172737475767778797a303132333435363738392b2fa2646970667358221220af8419eb08951a8d66d1083aef841cd7370a70d5a38df0b544fc00c0031ea5bf64736f6c63430008070033",
  "linkReferences": {},
  "deployedLinkReferences": {}
}