{
  "_format": "hh-sol-artifact-1",
  "contractName": "Whitepaper",
  "sourceName": "contracts/Whitepaper.sol",
  "abi": [
    {
      "inputs": [],
      "stateMutability": "nonpayable",
      "type": "constructor"
    },
    {
      "anonymous": false,
      "inputs": [
        {
          "indexed": true,
          "internalType": "address",
          "name": "owner",
          "type": "address"
        },
        {
          "indexed": true,
          "internalType": "address",
          "name": "approved",
          "type": "address"
        },
        {
          "indexed": true,
          "internalType": "uint256",
          "name": "tokenId",
          "type": "uint256"
        }
      ],
      "name": "Approval",
      "type": "event"
    },
    {
      "anonymous": false,
      "inputs": [
        {
          "indexed": true,
          "internalType": "address",
          "name": "owner",
          "type": "address"
        },
        {
          "indexed": true,
          "internalType": "address",
          "name": "operator",
          "type": "address"
        },
        {
          "indexed": false,
          "internalType": "bool",
          "name": "approved",
          "type": "bool"
        }
      ],
      "name": "ApprovalForAll",
      "type": "event"
    },
    {
      "anonymous": false,
      "inputs": [
        {
          "indexed": true,
          "internalType": "address",
          "name": "delegator",
          "type": "address"
        },
        {
          "indexed": true,
          "internalType": "address",
          "name": "fromDelegate",
          "type": "address"
        },
        {
          "indexed": true,
          "internalType": "address",
          "name": "toDelegate",
          "type": "address"
        }
      ],
      "name": "DelegateChanged",
      "type": "event"
    },
    {
      "anonymous": false,
      "inputs": [
        {
          "indexed": true,
          "internalType": "address",
          "name": "delegate",
          "type": "address"
        },
        {
          "indexed": false,
          "internalType": "uint256",
          "name": "previousBalance",
          "type": "uint256"
        },
        {
          "indexed": false,
          "internalType": "uint256",
          "name": "newBalance",
          "type": "uint256"
        }
      ],
      "name": "DelegateVotesChanged",
      "type": "event"
    },
    {
      "anonymous": false,
      "inputs": [
        {
          "indexed": true,
          "internalType": "address",
          "name": "previousOwner",
          "type": "address"
        },
        {
          "indexed": true,
          "internalType": "address",
          "name": "newOwner",
          "type": "address"
        }
      ],
      "name": "OwnershipTransferred",
      "type": "event"
    },
    {
      "anonymous": false,
      "inputs": [
        {
          "indexed": false,
          "internalType": "string",
          "name": "pageName",
          "type": "string"
        },
        {
          "indexed": false,
          "internalType": "string[]",
          "name": "pageContant",
          "type": "string[]"
        },
        {
          "indexed": true,
          "internalType": "uint256",
          "name": "tokenId",
          "type": "uint256"
        }
      ],
      "name": "PageContact",
      "type": "event"
    },
    {
      "anonymous": false,
      "inputs": [
        {
          "indexed": true,
          "internalType": "address",
          "name": "from",
          "type": "address"
        },
        {
          "indexed": true,
          "internalType": "address",
          "name": "to",
          "type": "address"
        },
        {
          "indexed": true,
          "internalType": "uint256",
          "name": "tokenId",
          "type": "uint256"
        }
      ],
      "name": "Transfer",
      "type": "event"
    },
    {
      "anonymous": false,
      "inputs": [
        {
          "indexed": false,
          "internalType": "string",
          "name": "value",
          "type": "string"
        },
        {
          "indexed": true,
          "internalType": "uint256",
          "name": "tokenId",
          "type": "uint256"
        }
      ],
      "name": "URI",
      "type": "event"
    },
    {
      "inputs": [],
      "name": "DOMAIN_SEPARATOR",
      "outputs": [
        {
          "internalType": "bytes32",
          "name": "",
          "type": "bytes32"
        }
      ],
      "stateMutability": "view",
      "type": "function"
    },
    {
      "inputs": [],
      "name": "MAX_WHITE_PAPER_SUPPLY",
      "outputs": [
        {
          "internalType": "uint256",
          "name": "",
          "type": "uint256"
        }
      ],
      "stateMutability": "view",
      "type": "function"
    },
    {
      "inputs": [
        {
          "internalType": "address",
          "name": "to",
          "type": "address"
        },
        {
          "internalType": "uint256",
          "name": "tokenId",
          "type": "uint256"
        }
      ],
      "name": "approve",
      "outputs": [],
      "stateMutability": "nonpayable",
      "type": "function"
    },
    {
      "inputs": [
        {
          "internalType": "address",
          "name": "owner",
          "type": "address"
        }
      ],
      "name": "balanceOf",
      "outputs": [
        {
          "internalType": "uint256",
          "name": "",
          "type": "uint256"
        }
      ],
      "stateMutability": "view",
      "type": "function"
    },
    {
      "inputs": [
        {
          "internalType": "uint256",
          "name": "tokenId",
          "type": "uint256"
        }
      ],
      "name": "burn",
      "outputs": [],
      "stateMutability": "nonpayable",
      "type": "function"
    },
    {
      "inputs": [
        {
          "internalType": "address",
          "name": "delegatee",
          "type": "address"
        }
      ],
      "name": "delegate",
      "outputs": [],
      "stateMutability": "nonpayable",
      "type": "function"
    },
    {
      "inputs": [
        {
          "internalType": "address",
          "name": "delegatee",
          "type": "address"
        },
        {
          "internalType": "uint256",
          "name": "nonce",
          "type": "uint256"
        },
        {
          "internalType": "uint256",
          "name": "expiry",
          "type": "uint256"
        },
        {
          "internalType": "uint8",
          "name": "v",
          "type": "uint8"
        },
        {
          "internalType": "bytes32",
          "name": "r",
          "type": "bytes32"
        },
        {
          "internalType": "bytes32",
          "name": "s",
          "type": "bytes32"
        }
      ],
      "name": "delegateBySig",
      "outputs": [],
      "stateMutability": "nonpayable",
      "type": "function"
    },
    {
      "inputs": [
        {
          "internalType": "address",
          "name": "account",
          "type": "address"
        }
      ],
      "name": "delegates",
      "outputs": [
        {
          "internalType": "address",
          "name": "",
          "type": "address"
        }
      ],
      "stateMutability": "view",
      "type": "function"
    },
    {
      "inputs": [
        {
          "internalType": "uint256",
          "name": "tokenId",
          "type": "uint256"
        }
      ],
      "name": "getApproved",
      "outputs": [
        {
          "internalType": "address",
          "name": "",
          "type": "address"
        }
      ],
      "stateMutability": "view",
      "type": "function"
    },
    {
      "inputs": [
        {
          "internalType": "uint256",
          "name": "blockNumber",
          "type": "uint256"
        }
      ],
      "name": "getPastTotalSupply",
      "outputs": [
        {
          "internalType": "uint256",
          "name": "",
          "type": "uint256"
        }
      ],
      "stateMutability": "view",
      "type": "function"
    },
    {
      "inputs": [
        {
          "internalType": "address",
          "name": "account",
          "type": "address"
        },
        {
          "internalType": "uint256",
          "name": "blockNumber",
          "type": "uint256"
        }
      ],
      "name": "getPastVotes",
      "outputs": [
        {
          "internalType": "uint256",
          "name": "",
          "type": "uint256"
        }
      ],
      "stateMutability": "view",
      "type": "function"
    },
    {
      "inputs": [
        {
          "internalType": "uint256",
          "name": "_tokenId",
          "type": "uint256"
        }
      ],
      "name": "getText",
      "outputs": [
        {
          "internalType": "string[]",
          "name": "",
          "type": "string[]"
        }
      ],
      "stateMutability": "view",
      "type": "function"
    },
    {
      "inputs": [
        {
          "internalType": "address",
          "name": "account",
          "type": "address"
        }
      ],
      "name": "getVotes",
      "outputs": [
        {
          "internalType": "uint256",
          "name": "",
          "type": "uint256"
        }
      ],
      "stateMutability": "view",
      "type": "function"
    },
    {
      "inputs": [
        {
          "internalType": "address",
          "name": "owner",
          "type": "address"
        },
        {
          "internalType": "address",
          "name": "operator",
          "type": "address"
        }
      ],
      "name": "isApprovedForAll",
      "outputs": [
        {
          "internalType": "bool",
          "name": "",
          "type": "bool"
        }
      ],
      "stateMutability": "view",
      "type": "function"
    },
    {
      "inputs": [
        {
          "internalType": "address",
          "name": "to",
          "type": "address"
        }
      ],
      "name": "mint",
      "outputs": [],
      "stateMutability": "payable",
      "type": "function"
    },
    {
      "inputs": [],
      "name": "mintPrice",
      "outputs": [
        {
          "internalType": "uint256",
          "name": "",
          "type": "uint256"
        }
      ],
      "stateMutability": "view",
      "type": "function"
    },
    {
      "inputs": [],
      "name": "name",
      "outputs": [
        {
          "internalType": "string",
          "name": "",
          "type": "string"
        }
      ],
      "stateMutability": "view",
      "type": "function"
    },
    {
      "inputs": [
        {
          "internalType": "address",
          "name": "owner",
          "type": "address"
        }
      ],
      "name": "nonces",
      "outputs": [
        {
          "internalType": "uint256",
          "name": "",
          "type": "uint256"
        }
      ],
      "stateMutability": "view",
      "type": "function"
    },
    {
      "inputs": [],
      "name": "owner",
      "outputs": [
        {
          "internalType": "address",
          "name": "",
          "type": "address"
        }
      ],
      "stateMutability": "view",
      "type": "function"
    },
    {
      "inputs": [
        {
          "internalType": "uint256",
          "name": "tokenId",
          "type": "uint256"
        }
      ],
      "name": "ownerOf",
      "outputs": [
        {
          "internalType": "address",
          "name": "",
          "type": "address"
        }
      ],
      "stateMutability": "view",
      "type": "function"
    },
    {
      "inputs": [
        {
          "internalType": "uint256",
          "name": "_tokenId",
          "type": "uint256"
        }
      ],
      "name": "price",
      "outputs": [
        {
          "internalType": "uint256",
          "name": "",
          "type": "uint256"
        }
      ],
      "stateMutability": "view",
      "type": "function"
    },
    {
      "inputs": [],
      "name": "renounceOwnership",
      "outputs": [],
      "stateMutability": "nonpayable",
      "type": "function"
    },
    {
      "inputs": [
        {
          "internalType": "uint256",
          "name": "_tokenId",
          "type": "uint256"
        },
        {
          "internalType": "uint256",
          "name": "_salePrice",
          "type": "uint256"
        }
      ],
      "name": "royaltyInfo",
      "outputs": [
        {
          "internalType": "address",
          "name": "receiver",
          "type": "address"
        },
        {
          "internalType": "uint256",
          "name": "royaltyAmount",
          "type": "uint256"
        }
      ],
      "stateMutability": "view",
      "type": "function"
    },
    {
      "inputs": [
        {
          "internalType": "address",
          "name": "from",
          "type": "address"
        },
        {
          "internalType": "address",
          "name": "to",
          "type": "address"
        },
        {
          "internalType": "uint256",
          "name": "tokenId",
          "type": "uint256"
        }
      ],
      "name": "safeTransferFrom",
      "outputs": [],
      "stateMutability": "nonpayable",
      "type": "function"
    },
    {
      "inputs": [
        {
          "internalType": "address",
          "name": "from",
          "type": "address"
        },
        {
          "internalType": "address",
          "name": "to",
          "type": "address"
        },
        {
          "internalType": "uint256",
          "name": "tokenId",
          "type": "uint256"
        },
        {
          "internalType": "bytes",
          "name": "_data",
          "type": "bytes"
        }
      ],
      "name": "safeTransferFrom",
      "outputs": [],
      "stateMutability": "nonpayable",
      "type": "function"
    },
    {
      "inputs": [
        {
          "internalType": "address",
          "name": "operator",
          "type": "address"
        },
        {
          "internalType": "bool",
          "name": "approved",
          "type": "bool"
        }
      ],
      "name": "setApprovalForAll",
      "outputs": [],
      "stateMutability": "nonpayable",
      "type": "function"
    },
    {
      "inputs": [
        {
          "internalType": "bytes4",
          "name": "interfaceId",
          "type": "bytes4"
        }
      ],
      "name": "supportsInterface",
      "outputs": [
        {
          "internalType": "bool",
          "name": "",
          "type": "bool"
        }
      ],
      "stateMutability": "view",
      "type": "function"
    },
    {
      "inputs": [],
      "name": "symbol",
      "outputs": [
        {
          "internalType": "string",
          "name": "",
          "type": "string"
        }
      ],
      "stateMutability": "view",
      "type": "function"
    },
    {
      "inputs": [
        {
          "internalType": "uint256",
          "name": "tokenId",
          "type": "uint256"
        }
      ],
      "name": "tokenURI",
      "outputs": [
        {
          "internalType": "string",
          "name": "",
          "type": "string"
        }
      ],
      "stateMutability": "view",
      "type": "function"
    },
    {
      "inputs": [
        {
          "internalType": "address",
          "name": "from",
          "type": "address"
        },
        {
          "internalType": "address",
          "name": "to",
          "type": "address"
        },
        {
          "internalType": "uint256",
          "name": "tokenId",
          "type": "uint256"
        }
      ],
      "name": "transferFrom",
      "outputs": [],
      "stateMutability": "nonpayable",
      "type": "function"
    },
    {
      "inputs": [
        {
          "internalType": "address",
          "name": "newOwner",
          "type": "address"
        }
      ],
      "name": "transferOwnership",
      "outputs": [],
      "stateMutability": "nonpayable",
      "type": "function"
    },
    {
      "inputs": [],
      "name": "treasury",
      "outputs": [
        {
          "internalType": "address",
          "name": "",
          "type": "address"
        }
      ],
      "stateMutability": "view",
      "type": "function"
    },
    {
      "inputs": [
        {
          "internalType": "uint256",
          "name": "tokenId",
          "type": "uint256"
        },
        {
          "internalType": "string",
          "name": "pageName",
          "type": "string"
        },
        {
          "internalType": "string[]",
          "name": "text",
          "type": "string[]"
        }
      ],
      "name": "typewrite",
      "outputs": [],
      "stateMutability": "nonpayable",
      "type": "function"
    }
  ],
  "bytecode": "0x6101406040526000600d556103e8600e556001600f55601180546001600160a01b031916733b7a108fb52bc263d8fcb6c77dff5b9b152c5f2c1790553480156200004857600080fd5b506040518060400160405280600a8152602001692bb434ba32a830b832b960b11b815250604051806040016040528060038152602001620312e360ec1b8152506040518060400160405280600a8152602001692bb434ba32a830b832b960b11b81525060405180604001604052806002815260200161057560f41b8152508160009080519060200190620000de92919062000202565b508051620000f490600190602084019062000202565b505050620001116200010b620001ac60201b60201c565b620001b0565b815160208084019190912082518383012060e08290526101008190524660a0818152604080517f8b73c3c69bb8fe3d512ecc4cf759cc79239f7b179b0ffacaa9a75d522b39400f81880181905281830187905260608201869052608082019490945230818401528151808203909301835260c00190528051940193909320919290916080523060601b60c0526101205250620002e592505050565b3390565b600780546001600160a01b038381166001600160a01b0319831681179093556040519116919082907f8be0079c531659141344cd1fd0a4f28419497f9722a3daafe3b4186f6b6457e090600090a35050565b8280546200021090620002a8565b90600052602060002090601f0160209004810192826200023457600085556200027f565b82601f106200024f57805160ff19168380011785556200027f565b828001600101855582156200027f579182015b828111156200027f57825182559160200191906001019062000262565b506200028d92915062000291565b5090565b5b808211156200028d576000815560010162000292565b600181811c90821680620002bd57607f821691505b60208210811415620002df57634e487b7160e01b600052602260045260246000fd5b50919050565b60805160a05160c05160601c60e051610100516101205161397d6200033860003960006116a8015260006116f7015260006116d20152600061162b015260006116550152600061167f015261397d6000f3fe6080604052600436106101ee5760003560e01c80636817c76c1161010d57806395d89b41116100a0578063b88d4fde1161006f578063b88d4fde146105b2578063c3cda520146105d2578063c87b56dd146105f2578063e985e9c514610612578063f2fde38b1461065b57600080fd5b806395d89b411461053d5780639ab24eb014610552578063a22cb46514610572578063a53302441461059257600080fd5b80637ecebe00116100dc5780637ecebe00146104b25780637f4ef9d4146104d25780638da5cb5b146104ff5780638e539e8c1461051d57600080fd5b80636817c76c146104555780636a6278421461046a57806370a082311461047d578063715018a61461049d57600080fd5b806339d1237711610185578063587cde1e11610154578063587cde1e146103bc5780635c19a95c146103f557806361d027b3146104155780636352211e1461043557600080fd5b806339d12377146103465780633a46b1a81461035c57806342842e0e1461037c57806342966c681461039c57600080fd5b806323b872dd116101c157806323b872dd146102a457806326a49e37146102c45780632a55205a146102f25780633644e5151461033157600080fd5b806301ffc9a7146101f357806306fdde0314610228578063081812fc1461024a578063095ea7b314610282575b600080fd5b3480156101ff57600080fd5b5061021361020e366004612d63565b61067b565b60405190151581526020015b60405180910390f35b34801561023457600080fd5b5061023d6106cd565b60405161021f9190613239565b34801561025657600080fd5b5061026a610265366004612d9d565b61075f565b6040516001600160a01b03909116815260200161021f565b34801561028e57600080fd5b506102a261029d366004612cd9565b6107f9565b005b3480156102b057600080fd5b506102a26102bf366004612be5565b61090f565b3480156102d057600080fd5b506102e46102df366004612d9d565b610941565b60405190815260200161021f565b3480156102fe57600080fd5b5061031261030d366004612ead565b610973565b604080516001600160a01b03909316835260208301919091520161021f565b34801561033d57600080fd5b506102e46109a6565b34801561035257600080fd5b506102e461271081565b34801561036857600080fd5b506102e4610377366004612cd9565b6109b5565b34801561038857600080fd5b506102a2610397366004612be5565b6109d7565b3480156103a857600080fd5b506102a26103b7366004612d9d565b6109f2565b3480156103c857600080fd5b5061026a6103d7366004612b97565b6001600160a01b039081166000908152600860205260409020541690565b34801561040157600080fd5b506102a2610410366004612b97565b610a6c565b34801561042157600080fd5b5060115461026a906001600160a01b031681565b34801561044157600080fd5b5061026a610450366004612d9d565b610a7b565b34801561046157600080fd5b506102e4610af2565b6102a2610478366004612b97565b610b1a565b34801561048957600080fd5b506102e4610498366004612b97565b610c49565b3480156104a957600080fd5b506102a2610cd0565b3480156104be57600080fd5b506102e46104cd366004612b97565b610d36565b3480156104de57600080fd5b506104f26104ed366004612d9d565b610d54565b60405161021f9190613226565b34801561050b57600080fd5b506007546001600160a01b031661026a565b34801561052957600080fd5b506102e4610538366004612d9d565b610e40565b34801561054957600080fd5b5061023d610e9c565b34801561055e57600080fd5b506102e461056d366004612b97565b610eab565b34801561057e57600080fd5b506102a261058d366004612c9d565b610ecc565b34801561059e57600080fd5b506102a26105ad366004612db6565b610ed7565b3480156105be57600080fd5b506102a26105cd366004612c21565b61107c565b3480156105de57600080fd5b506102a26105ed366004612d03565b6110b4565b3480156105fe57600080fd5b5061023d61060d366004612d9d565b6111e1565b34801561061e57600080fd5b5061021361062d366004612bb2565b6001600160a01b03918216600090815260056020908152604080832093909416825291909152205460ff1690565b34801561066757600080fd5b506102a2610676366004612b97565b61124f565b60006001600160e01b031982166380ac58cd60e01b14806106ac57506001600160e01b03198216635b5e139f60e01b145b806106c757506301ffc9a760e01b6001600160e01b03198316145b92915050565b6060600080546106dc906133dc565b80601f0160208091040260200160405190810160405280929190818152602001828054610708906133dc565b80156107555780601f1061072a57610100808354040283529160200191610755565b820191906000526020600020905b81548152906001019060200180831161073857829003601f168201915b5050505050905090565b6000818152600260205260408120546001600160a01b03166107dd5760405162461bcd60e51b815260206004820152602c60248201527f4552433732313a20617070726f76656420717565727920666f72206e6f6e657860448201526b34b9ba32b73a103a37b5b2b760a11b60648201526084015b60405180910390fd5b506000908152600460205260409020546001600160a01b031690565b600061080482610a7b565b9050806001600160a01b0316836001600160a01b031614156108725760405162461bcd60e51b815260206004820152602160248201527f4552433732313a20617070726f76616c20746f2063757272656e74206f776e656044820152603960f91b60648201526084016107d4565b336001600160a01b038216148061088e575061088e813361062d565b6109005760405162461bcd60e51b815260206004820152603860248201527f4552433732313a20617070726f76652063616c6c6572206973206e6f74206f7760448201527f6e6572206e6f7220617070726f76656420666f7220616c6c000000000000000060648201526084016107d4565b61090a8383611317565b505050565b61091a335b82611385565b6109365760405162461bcd60e51b81526004016107d4906132cc565b61090a83838361147c565b600080600f54600e54846109559190613366565b61095f919061337a565b600d5461096c919061334e565b9392505050565b6000808061271061098560648661337a565b61098f9190613366565b6011546001600160a01b0316969095509350505050565b60006109b061161e565b905090565b6001600160a01b038216600090815260096020526040812061096c9083611745565b61090a8383836040518060200160405280600081525061107c565b6109fb33610914565b610a605760405162461bcd60e51b815260206004820152603060248201527f4552433732314275726e61626c653a2063616c6c6572206973206e6f74206f7760448201526f1b995c881b9bdc88185c1c1c9bdd995960821b60648201526084016107d4565b610a6981611854565b50565b33610a77818361185d565b5050565b6000818152600260205260408120546001600160a01b0316806106c75760405162461bcd60e51b815260206004820152602960248201527f4552433732313a206f776e657220717565727920666f72206e6f6e657869737460448201526832b73a103a37b5b2b760b91b60648201526084016107d4565b600080610afe600c5490565b610b0990600161334e565b9050610b1481610941565b91505090565b600c5461271011610b665760405162461bcd60e51b8152602060048201526016602482015275416c6c2070617065727320776173206d696e7465642160501b60448201526064016107d4565b323314610ba05760405162461bcd60e51b81526020600482015260086024820152674e6f20426f74732160c01b60448201526064016107d4565b610ba8610af2565b341115610beb5760405162461bcd60e51b8152602060048201526011602482015270496e737566696369656e742046756e647360781b60448201526064016107d4565b610bf9600c80546001019055565b6000610c04600c5490565b9050610c1082826118cf565b6011546040516001600160a01b03909116903480156108fc02916000818181858888f1935050505015801561090a573d6000803e3d6000fd5b60006001600160a01b038216610cb45760405162461bcd60e51b815260206004820152602a60248201527f4552433732313a2062616c616e636520717565727920666f7220746865207a65604482015269726f206164647265737360b01b60648201526084016107d4565b506001600160a01b031660009081526003602052604090205490565b6007546001600160a01b03163314610d2a5760405162461bcd60e51b815260206004820181905260248201527f4f776e61626c653a2063616c6c6572206973206e6f7420746865206f776e657260448201526064016107d4565b610d3460006118e9565b565b6001600160a01b0381166000908152600b60205260408120546106c7565b606060146000838152602001908152602001600020805480602002602001604051908101604052809291908181526020016000905b82821015610e35578382906000526020600020018054610da8906133dc565b80601f0160208091040260200160405190810160405280929190818152602001828054610dd4906133dc565b8015610e215780601f10610df657610100808354040283529160200191610e21565b820191906000526020600020905b815481529060010190602001808311610e0457829003601f168201915b505050505081526020019060010190610d89565b505050509050919050565b6000438210610e915760405162461bcd60e51b815260206004820152601a60248201527f566f7465733a20626c6f636b206e6f7420796574206d696e656400000000000060448201526064016107d4565b6106c7600a83611745565b6060600180546106dc906133dc565b6001600160a01b03811660009081526009602052604081206106c79061193b565b610a77338383611997565b610ee083610a7b565b6001600160a01b0316336001600160a01b031614610f4b5760405162461bcd60e51b815260206004820152602260248201527f4f6e6c7920746865206f776e65722063616e207772697465207468652070617060448201526132b960f11b60648201526084016107d4565b60008381526012602052604090205460ff1615610fa25760405162461bcd60e51b81526020600482015260156024820152742830b832b91020b63932b0b23c902bb934ba3a32b760591b60448201526064016107d4565b60008381526014602090815260409091208251610fc1928401906129be565b5060008381526013602090815260409091208351610fe192850190612a17565b5060008381526012602052604090819020805460ff191660011790555183907f95c03e42cab70268568ddb01c242889ad2e2bfa76a70774afb17e0673e56f25c9061102f908590859061324c565b60405180910390a2827f6bb7ff708619ba0610cba295a58592e0451dee2622938c8755667688daf3529b611062856111e1565b60405161106f9190613239565b60405180910390a2505050565b6110863383611385565b6110a25760405162461bcd60e51b81526004016107d4906132cc565b6110ae84848484611a66565b50505050565b834211156111045760405162461bcd60e51b815260206004820152601860248201527f566f7465733a207369676e61747572652065787069726564000000000000000060448201526064016107d4565b604080517fe48329057bfd03d55e49b547132e39cffd9c1820ad7b9d4c5307691425d15adf60208201526001600160a01b03881691810191909152606081018690526080810185905260009061117e906111769060a00160405160208183030381529060405280519060200120611a99565b858585611ae7565b905061118981611b0f565b86146111ce5760405162461bcd60e51b8152602060048201526014602482015273566f7465733a20696e76616c6964206e6f6e636560601b60448201526064016107d4565b6111d8818861185d565b50505050505050565b6000818152601360205260408120606091906112259061120085611b37565b60405160200161121192919061309c565b604051602081830303815290604052611d20565b90508060405160200161123891906131ae565b604051602081830303815290604052915050919050565b6007546001600160a01b031633146112a95760405162461bcd60e51b815260206004820181905260248201527f4f776e61626c653a2063616c6c6572206973206e6f7420746865206f776e657260448201526064016107d4565b6001600160a01b03811661130e5760405162461bcd60e51b815260206004820152602660248201527f4f776e61626c653a206e6577206f776e657220697320746865207a65726f206160448201526564647265737360d01b60648201526084016107d4565b610a69816118e9565b600081815260046020526040902080546001600160a01b0319166001600160a01b038416908117909155819061134c82610a7b565b6001600160a01b03167f8c5be1e5ebec7d5bd14f71427d1e84f3dd0314c0f7b2291e5b200ac8c7c3b92560405160405180910390a45050565b6000818152600260205260408120546001600160a01b03166113fe5760405162461bcd60e51b815260206004820152602c60248201527f4552433732313a206f70657261746f7220717565727920666f72206e6f6e657860448201526b34b9ba32b73a103a37b5b2b760a11b60648201526084016107d4565b600061140983610a7b565b9050806001600160a01b0316846001600160a01b0316148061145057506001600160a01b0380821660009081526005602090815260408083209388168352929052205460ff165b806114745750836001600160a01b03166114698461075f565b6001600160a01b0316145b949350505050565b826001600160a01b031661148f82610a7b565b6001600160a01b0316146114f35760405162461bcd60e51b815260206004820152602560248201527f4552433732313a207472616e736665722066726f6d20696e636f72726563742060448201526437bbb732b960d91b60648201526084016107d4565b6001600160a01b0382166115555760405162461bcd60e51b8152602060048201526024808201527f4552433732313a207472616e7366657220746f20746865207a65726f206164646044820152637265737360e01b60648201526084016107d4565b611560600082611317565b6001600160a01b0383166000908152600360205260408120805460019290611589908490613399565b90915550506001600160a01b03821660009081526003602052604081208054600192906115b790849061334e565b909155505060008181526002602052604080822080546001600160a01b0319166001600160a01b0386811691821790925591518493918716917fddf252ad1be2c89b69c2b068fc378daa952ba7f163c4a11628f55a4df523b3ef91a461090a838383611e86565b6000306001600160a01b037f00000000000000000000000000000000000000000000000000000000000000001614801561167757507f000000000000000000000000000000000000000000000000000000000000000046145b156116a157507f000000000000000000000000000000000000000000000000000000000000000090565b50604080517f00000000000000000000000000000000000000000000000000000000000000006020808301919091527f0000000000000000000000000000000000000000000000000000000000000000828401527f000000000000000000000000000000000000000000000000000000000000000060608301524660808301523060a0808401919091528351808403909101815260c0909201909252805191012090565b60004382106117965760405162461bcd60e51b815260206004820181905260248201527f436865636b706f696e74733a20626c6f636b206e6f7420796574206d696e656460448201526064016107d4565b825460005b818110156117fb5760006117af8284611e91565b9050848660000182815481106117c7576117c7613482565b60009182526020909120015463ffffffff1611156117e7578092506117f5565b6117f281600161334e565b91505b5061179b565b811561183f578461180d600184613399565b8154811061181d5761181d613482565b60009182526020909120015464010000000090046001600160e01b0316611842565b60005b6001600160e01b031695945050505050565b610a6981611eac565b6001600160a01b0382811660008181526008602052604080822080548686166001600160a01b0319821681179092559151919094169392849290917f3134e8a2e6d97e929a7e54011ea5485d7d196dd5f0ba4d4ef95803e8e3fc257f9190a461090a81836118ca86611eec565b611ef7565b610a77828260405180602001604052806000815250612034565b600780546001600160a01b038381166001600160a01b0319831681179093556040519116919082907f8be0079c531659141344cd1fd0a4f28419497f9722a3daafe3b4186f6b6457e090600090a35050565b805460009080156119845782611952600183613399565b8154811061196257611962613482565b60009182526020909120015464010000000090046001600160e01b0316611987565b60005b6001600160e01b03169392505050565b816001600160a01b0316836001600160a01b031614156119f95760405162461bcd60e51b815260206004820152601960248201527f4552433732313a20617070726f766520746f2063616c6c65720000000000000060448201526064016107d4565b6001600160a01b03838116600081815260056020908152604080832094871680845294825291829020805460ff191686151590811790915591519182527f17307eab39ab6107e8899845ad3d59bd9653f200f220920489ca2b5937696c31910160405180910390a3505050565b611a7184848461147c565b611a7d84848484612067565b6110ae5760405162461bcd60e51b81526004016107d49061327a565b60006106c7611aa661161e565b8360405161190160f01b6020820152602281018390526042810182905260009060620160405160208183030381529060405280519060200120905092915050565b6000806000611af887878787612171565b91509150611b058161225e565b5095945050505050565b6001600160a01b0381166000908152600b602052604090208054600181018255905b50919050565b606080606080606060405180610480016040528061044381526020016134c56104439139925060005b600087815260146020526040902054811015611ccf576060611b96611b8683606461337a565b611b919060fa61334e565b612419565b604051602001611ba6919061301f565b60405160208183030381529060405290506000601460008a81526020019081526020016000208381548110611bdd57611bdd613482565b906000526020600020018054611bf2906133dc565b80601f0160208091040260200160405190810160405280929190818152602001828054611c1e906133dc565b8015611c6b5780601f10611c4057610100808354040283529160200191611c6b565b820191906000526020600020905b815481529060010190602001808311611c4e57829003601f168201915b505050505090508181604051602001611c85929190612fde565b60405160208183030381529060405291508682604051602001611ca9929190612f6c565b604051602081830303815290604052965050508080611cc790613411565b915050611b60565b50604051806040016040528060068152602001651e17b9bb339f60d11b8152509150828483604051602001611d0693929190612f9b565b60408051601f198184030181529190529695505050505050565b6060815160001415611d4057505060408051602081019091526000815290565b60006040518060600160405280604081526020016139086040913990506000600384516002611d6f919061334e565b611d799190613366565b611d8490600461337a565b90506000611d9382602061334e565b67ffffffffffffffff811115611dab57611dab613498565b6040519080825280601f01601f191660200182016040528015611dd5576020820181803683370190505b509050818152600183018586518101602084015b81831015611e41576003830192508251603f8160121c168501518253600182019150603f81600c1c168501518253600182019150603f8160061c168501518253600182019150603f8116850151825350600101611de9565b600389510660018114611e5b5760028114611e6c57611e78565b613d3d60f01b600119830152611e78565b603d60f81b6000198301525b509398975050505050505050565b61090a838383612517565b6000611ea06002848418613366565b61096c9084841661334e565b611eb581612523565b60008181526006602052604090208054611ece906133dc565b159050610a69576000818152600660205260408120610a6991612a97565b60006106c782610c49565b816001600160a01b0316836001600160a01b031614158015611f195750600081115b1561090a576001600160a01b03831615611fa7576001600160a01b03831660009081526009602052604081208190611f54906125c6856125d2565b91509150846001600160a01b03167fdec2bacdd2f05b59de34da9b523dff8be42e5e38e818c82fdb0bae774387a7248383604051611f9c929190918252602082015260400190565b60405180910390a250505b6001600160a01b0382161561090a576001600160a01b03821660009081526009602052604081208190611fdd90612600856125d2565b91509150836001600160a01b03167fdec2bacdd2f05b59de34da9b523dff8be42e5e38e818c82fdb0bae774387a7248383604051612025929190918252602082015260400190565b60405180910390a25050505050565b61203e838361260c565b61204b6000848484612067565b61090a5760405162461bcd60e51b81526004016107d49061327a565b60006001600160a01b0384163b1561216957604051630a85bd0160e11b81526001600160a01b0385169063150b7a02906120ab9033908990889088906004016131f3565b602060405180830381600087803b1580156120c557600080fd5b505af19250505080156120f5575060408051601f3d908101601f191682019092526120f291810190612d80565b60015b61214f573d808015612123576040519150601f19603f3d011682016040523d82523d6000602084013e612128565b606091505b5080516121475760405162461bcd60e51b81526004016107d49061327a565b805181602001fd5b6001600160e01b031916630a85bd0160e11b149050611474565b506001611474565b6000807f7fffffffffffffffffffffffffffffff5d576e7357a4501ddfe92f46681b20a08311156121a85750600090506003612255565b8460ff16601b141580156121c057508460ff16601c14155b156121d15750600090506004612255565b6040805160008082526020820180845289905260ff881692820192909252606081018690526080810185905260019060a0016020604051602081039080840390855afa158015612225573d6000803e3d6000fd5b5050604051601f1901519150506001600160a01b03811661224e57600060019250925050612255565b9150600090505b94509492505050565b60008160048111156122725761227261346c565b141561227b5750565b600181600481111561228f5761228f61346c565b14156122dd5760405162461bcd60e51b815260206004820152601860248201527f45434453413a20696e76616c6964207369676e6174757265000000000000000060448201526064016107d4565b60028160048111156122f1576122f161346c565b141561233f5760405162461bcd60e51b815260206004820152601f60248201527f45434453413a20696e76616c6964207369676e6174757265206c656e6774680060448201526064016107d4565b60038160048111156123535761235361346c565b14156123ac5760405162461bcd60e51b815260206004820152602260248201527f45434453413a20696e76616c6964207369676e6174757265202773272076616c604482015261756560f01b60648201526084016107d4565b60048160048111156123c0576123c061346c565b1415610a695760405162461bcd60e51b815260206004820152602260248201527f45434453413a20696e76616c6964207369676e6174757265202776272076616c604482015261756560f01b60648201526084016107d4565b60608161243d5750506040805180820190915260018152600360fc1b602082015290565b8160005b8115612467578061245181613411565b91506124609050600a83613366565b9150612441565b60008167ffffffffffffffff81111561248257612482613498565b6040519080825280601f01601f1916602001820160405280156124ac576020820181803683370190505b5090505b8415611474576124c1600183613399565b91506124ce600a8661342c565b6124d990603061334e565b60f81b8183815181106124ee576124ee613482565b60200101906001600160f81b031916908160001a905350612510600a86613366565b94506124b0565b61090a83836001612756565b600061252e82610a7b565b905061253b600083611317565b6001600160a01b0381166000908152600360205260408120805460019290612564908490613399565b909155505060008281526002602052604080822080546001600160a01b0319169055518391906001600160a01b038416907fddf252ad1be2c89b69c2b068fc378daa952ba7f163c4a11628f55a4df523b3ef908390a4610a7781600084611e86565b600061096c8284613399565b6000806125f4856125ef6125e58861193b565b868863ffffffff16565b6127c6565b91509150935093915050565b600061096c828461334e565b6001600160a01b0382166126625760405162461bcd60e51b815260206004820181905260248201527f4552433732313a206d696e7420746f20746865207a65726f206164647265737360448201526064016107d4565b6000818152600260205260409020546001600160a01b0316156126c75760405162461bcd60e51b815260206004820152601c60248201527f4552433732313a20746f6b656e20616c7265616479206d696e7465640000000060448201526064016107d4565b6001600160a01b03821660009081526003602052604081208054600192906126f090849061334e565b909155505060008181526002602052604080822080546001600160a01b0319166001600160a01b03861690811790915590518392907fddf252ad1be2c89b69c2b068fc378daa952ba7f163c4a11628f55a4df523b3ef908290a4610a7760008383611e86565b6001600160a01b03831661277557612772600a612600836125d2565b50505b6001600160a01b03821661279457612791600a6125c6836125d2565b50505b6001600160a01b0383811660009081526008602052604080822054858416835291205461090a92918216911683611ef7565b81546000908190816127d78661193b565b9050600082118015612815575043866127f1600185613399565b8154811061280157612801613482565b60009182526020909120015463ffffffff16145b1561287557612823856128ec565b8661282f600185613399565b8154811061283f5761283f613482565b9060005260206000200160000160046101000a8154816001600160e01b0302191690836001600160e01b031602179055506128e3565b85600001604051806040016040528061288d43612959565b63ffffffff1681526020016128a1886128ec565b6001600160e01b0390811690915282546001810184556000938452602093849020835194909301519091166401000000000263ffffffff909316929092179101555b95939450505050565b60006001600160e01b038211156129555760405162461bcd60e51b815260206004820152602760248201527f53616665436173743a2076616c756520646f65736e27742066697420696e20326044820152663234206269747360c81b60648201526084016107d4565b5090565b600063ffffffff8211156129555760405162461bcd60e51b815260206004820152602660248201527f53616665436173743a2076616c756520646f65736e27742066697420696e203360448201526532206269747360d01b60648201526084016107d4565b828054828255906000526020600020908101928215612a0b579160200282015b82811115612a0b57825180516129fb918491602090910190612a17565b50916020019190600101906129de565b50612955929150612ad1565b828054612a23906133dc565b90600052602060002090601f016020900481019282612a455760008555612a8b565b82601f10612a5e57805160ff1916838001178555612a8b565b82800160010185558215612a8b579182015b82811115612a8b578251825591602001919060010190612a70565b50612955929150612aee565b508054612aa3906133dc565b6000825580601f10612ab3575050565b601f016020900490600052602060002090810190610a699190612aee565b80821115612955576000612ae58282612a97565b50600101612ad1565b5b808211156129555760008155600101612aef565b600067ffffffffffffffff831115612b1d57612b1d613498565b612b30601f8401601f191660200161331d565b9050828152838383011115612b4457600080fd5b828260208301376000602084830101529392505050565b80356001600160a01b0381168114612b7257600080fd5b919050565b600082601f830112612b8857600080fd5b61096c83833560208501612b03565b600060208284031215612ba957600080fd5b61096c82612b5b565b60008060408385031215612bc557600080fd5b612bce83612b5b565b9150612bdc60208401612b5b565b90509250929050565b600080600060608486031215612bfa57600080fd5b612c0384612b5b565b9250612c1160208501612b5b565b9150604084013590509250925092565b60008060008060808587031215612c3757600080fd5b612c4085612b5b565b9350612c4e60208601612b5b565b925060408501359150606085013567ffffffffffffffff811115612c7157600080fd5b8501601f81018713612c8257600080fd5b612c9187823560208401612b03565b91505092959194509250565b60008060408385031215612cb057600080fd5b612cb983612b5b565b915060208301358015158114612cce57600080fd5b809150509250929050565b60008060408385031215612cec57600080fd5b612cf583612b5b565b946020939093013593505050565b60008060008060008060c08789031215612d1c57600080fd5b612d2587612b5b565b95506020870135945060408701359350606087013560ff81168114612d4957600080fd5b9598949750929560808101359460a0909101359350915050565b600060208284031215612d7557600080fd5b813561096c816134ae565b600060208284031215612d9257600080fd5b815161096c816134ae565b600060208284031215612daf57600080fd5b5035919050565b600080600060608486031215612dcb57600080fd5b8335925060208085013567ffffffffffffffff80821115612deb57600080fd5b612df788838901612b77565b94506040870135915080821115612e0d57600080fd5b818701915087601f830112612e2157600080fd5b813581811115612e3357612e33613498565b8060051b612e4285820161331d565b8281528581019085870183870188018d1015612e5d57600080fd5b60009350835b85811015612e9a57813587811115612e79578586fd5b612e878f8b838c0101612b77565b8552509288019290880190600101612e63565b5050809750505050505050509250925092565b60008060408385031215612ec057600080fd5b50508035926020909101359150565b600081518084526020808501808196508360051b8101915082860160005b85811015612f17578284038952612f05848351612f24565b98850198935090840190600101612eed565b5091979650505050505050565b60008151808452612f3c8160208601602086016133b0565b601f01601f19169290920160200192915050565b60008151612f628185602086016133b0565b9290920192915050565b60008351612f7e8184602088016133b0565b835190830190612f928183602088016133b0565b01949350505050565b60008451612fad8184602089016133b0565b845190830190612fc18183602089016133b0565b8451910190612fd48183602088016133b0565b0195945050505050565b60008351612ff08184602088016133b0565b8351908301906130048183602088016133b0565b661e17ba32bc3a1f60c91b9101908152600701949350505050565b703c7465787420783d273230302720793d2760781b81526000825161304b8160118501602087016133b0565b7f2720666f6e742d66616d696c793d27417269616c2720666f6e742d73697a653d601193909101928301525073139a99971993903334b6361e93b13630b1b5939f60611b6031820152604501919050565b693d913730b6b2911d101160b11b81528254600090600a908290600181811c90808316806130cb57607f831692505b60208084108214156130eb57634e487b7160e01b86526022600452602486fd5b8180156130ff576001811461311457613145565b60ff1986168a890152848a0188019650613145565b60008c81526020902060005b8681101561313b5781548c82018b0152908501908301613120565b505087858b010196505b5050505050506131a461319761318a6131846131698561088b60f21b815260020190565b6e1134b6b0b3b2afb230ba30911d101160891b8152600f0190565b88612f50565b601160f91b815260010190565b607d60f81b815260010190565b9695505050505050565b7f646174613a6170706c69636174696f6e2f6a736f6e3b6261736536342c0000008152600082516131e681601d8501602087016133b0565b91909101601d0192915050565b6001600160a01b03858116825284166020820152604081018390526080606082018190526000906131a490830184612f24565b60208152600061096c6020830184612ecf565b60208152600061096c6020830184612f24565b60408152600061325f6040830185612f24565b82810360208401526132718185612ecf565b95945050505050565b60208082526032908201527f4552433732313a207472616e7366657220746f206e6f6e20455243373231526560408201527131b2b4bb32b91034b6b83632b6b2b73a32b960711b606082015260800190565b60208082526031908201527f4552433732313a207472616e736665722063616c6c6572206973206e6f74206f6040820152701ddb995c881b9bdc88185c1c1c9bdd9959607a1b606082015260800190565b604051601f8201601f1916810167ffffffffffffffff8111828210171561334657613346613498565b604052919050565b6000821982111561336157613361613440565b500190565b60008261337557613375613456565b500490565b600081600019048311821515161561339457613394613440565b500290565b6000828210156133ab576133ab613440565b500390565b60005b838110156133cb5781810151838201526020016133b3565b838111156110ae5750506000910152565b600181811c908216806133f057607f821691505b60208210811415611b3157634e487b7160e01b600052602260045260246000fd5b600060001982141561342557613425613440565b5060010190565b60008261343b5761343b613456565b500690565b634e487b7160e01b600052601160045260246000fd5b634e487b7160e01b600052601260045260246000fd5b634e487b7160e01b600052602160045260246000fd5b634e487b7160e01b600052603260045260246000fd5b634e487b7160e01b600052604160045260246000fd5b6001600160e01b031981168114610a6957600080fdfe3c7376672077696474683d273234393427206865696768743d2733353233272076696577426f783d2730203020323439342033353233272066696c6c3d276e6f6e652720786d6c6e733d27687474703a2f2f7777772e77332e6f72672f323030302f737667273e203c672066696c7465723d2775726c282366696c746572305f645f313831355f323030373529273e203c7061746820643d274d3020302e35483234383056333530382e35483138342e3634324c3020333330392e373956302e355a272066696c6c3d277768697465272f3e203c7061746820643d274d3138372e31343220333330392e373956333330372e3239483138342e36343248322e35563348323437372e355633353036483138372e31343256333330392e37395a4d3138322e31343220333331322e323956333530322e31344c352e373335353620333331322e3239483138322e3134325a27207374726f6b653d272341334131413127207374726f6b652d77696474683d2735272f3e203c2f673e203c646566733e203c66696c7465722069643d2766696c746572305f645f313831355f32303037352720783d27302720793d27302e35272077696474683d273234393427206865696768743d2733353232272066696c746572556e6974733d277573657253706163654f6e5573652720636f6c6f722d696e746572706f6c6174696f6e2d66696c746572733d2773524742273e203c6665466c6f6f6420666c6f6f642d6f7061636974793d27302720726573756c743d274261636b67726f756e64496d616765466978272f3e3c6665436f6c6f724d617472697820696e3d27536f75726365416c7068612720747970653d276d6174726978272076616c7565733d2730203020302030203020302030203020302030203020302030203020302030203020302031323720302720726573756c743d2768617264416c706861272f3e203c66654f66667365742064783d273130272064793d273130272f3e3c6665476175737369616e426c757220737464446576696174696f6e3d2732272f3e203c6665436f6d706f7369746520696e323d2768617264416c70686127206f70657261746f723d276f7574272f3e203c6665436f6c6f724d617472697820747970653d276d6174726978272076616c7565733d27302030203020302030203020302030203020302030203020302030203020302030203020302e32352030272f3e203c6665426c656e64206d6f64653d276e6f726d616c2720696e323d274261636b67726f756e64496d6167654669782720726573756c743d27656666656374315f64726f70536861646f775f313831355f3230303735272f3e203c6665426c656e64206d6f64653d276e6f726d616c2720696e3d27536f75726365477261706869632720696e323d27656666656374315f64726f70536861646f775f313831355f32303037352720726573756c743d277368617065272f3e203c2f66696c7465723e3c2f646566733e4142434445464748494a4b4c4d4e4f505152535455565758595a6162636465666768696a6b6c6d6e6f707172737475767778797a303132333435363738392b2fa2646970667358221220c6f296e75a703858da87eea8043bde8776ef96d04ac76d188e8cff647fca0e7464736f6c63430008070033",
  "linkReferences": {},
  "deployedLinkReferences": {}
}