{
  "_format": "hh-sol-artifact-1",
  "contractName": "Whitepaper",
  "sourceName": "contracts/Whitepaper.sol",
  "abi": [
    {
      "inputs": [],
      "stateMutability": "nonpayable",
      "type": "constructor"
    },
    {
      "anonymous": false,
      "inputs": [
        {
          "indexed": true,
          "internalType": "address",
          "name": "owner",
          "type": "address"
        },
        {
          "indexed": true,
          "internalType": "address",
          "name": "approved",
          "type": "address"
        },
        {
          "indexed": true,
          "internalType": "uint256",
          "name": "tokenId",
          "type": "uint256"
        }
      ],
      "name": "Approval",
      "type": "event"
    },
    {
      "anonymous": false,
      "inputs": [
        {
          "indexed": true,
          "internalType": "address",
          "name": "owner",
          "type": "address"
        },
        {
          "indexed": true,
          "internalType": "address",
          "name": "operator",
          "type": "address"
        },
        {
          "indexed": false,
          "internalType": "bool",
          "name": "approved",
          "type": "bool"
        }
      ],
      "name": "ApprovalForAll",
      "type": "event"
    },
    {
      "anonymous": false,
      "inputs": [
        {
          "indexed": true,
          "internalType": "address",
          "name": "delegator",
          "type": "address"
        },
        {
          "indexed": true,
          "internalType": "address",
          "name": "fromDelegate",
          "type": "address"
        },
        {
          "indexed": true,
          "internalType": "address",
          "name": "toDelegate",
          "type": "address"
        }
      ],
      "name": "DelegateChanged",
      "type": "event"
    },
    {
      "anonymous": false,
      "inputs": [
        {
          "indexed": true,
          "internalType": "address",
          "name": "delegate",
          "type": "address"
        },
        {
          "indexed": false,
          "internalType": "uint256",
          "name": "previousBalance",
          "type": "uint256"
        },
        {
          "indexed": false,
          "internalType": "uint256",
          "name": "newBalance",
          "type": "uint256"
        }
      ],
      "name": "DelegateVotesChanged",
      "type": "event"
    },
    {
      "anonymous": false,
      "inputs": [
        {
          "indexed": true,
          "internalType": "address",
          "name": "previousOwner",
          "type": "address"
        },
        {
          "indexed": true,
          "internalType": "address",
          "name": "newOwner",
          "type": "address"
        }
      ],
      "name": "OwnershipTransferred",
      "type": "event"
    },
    {
      "anonymous": false,
      "inputs": [
        {
          "indexed": true,
          "internalType": "address",
          "name": "from",
          "type": "address"
        },
        {
          "indexed": true,
          "internalType": "address",
          "name": "to",
          "type": "address"
        },
        {
          "indexed": true,
          "internalType": "uint256",
          "name": "tokenId",
          "type": "uint256"
        }
      ],
      "name": "Transfer",
      "type": "event"
    },
    {
      "inputs": [],
      "name": "DOMAIN_SEPARATOR",
      "outputs": [
        {
          "internalType": "bytes32",
          "name": "",
          "type": "bytes32"
        }
      ],
      "stateMutability": "view",
      "type": "function"
    },
    {
      "inputs": [
        {
          "internalType": "address",
          "name": "to",
          "type": "address"
        },
        {
          "internalType": "uint256",
          "name": "tokenId",
          "type": "uint256"
        }
      ],
      "name": "approve",
      "outputs": [],
      "stateMutability": "nonpayable",
      "type": "function"
    },
    {
      "inputs": [
        {
          "internalType": "address",
          "name": "owner",
          "type": "address"
        }
      ],
      "name": "balanceOf",
      "outputs": [
        {
          "internalType": "uint256",
          "name": "",
          "type": "uint256"
        }
      ],
      "stateMutability": "view",
      "type": "function"
    },
    {
      "inputs": [
        {
          "internalType": "uint256",
          "name": "tokenId",
          "type": "uint256"
        }
      ],
      "name": "burn",
      "outputs": [],
      "stateMutability": "nonpayable",
      "type": "function"
    },
    {
      "inputs": [
        {
          "internalType": "address",
          "name": "delegatee",
          "type": "address"
        }
      ],
      "name": "delegate",
      "outputs": [],
      "stateMutability": "nonpayable",
      "type": "function"
    },
    {
      "inputs": [
        {
          "internalType": "address",
          "name": "delegatee",
          "type": "address"
        },
        {
          "internalType": "uint256",
          "name": "nonce",
          "type": "uint256"
        },
        {
          "internalType": "uint256",
          "name": "expiry",
          "type": "uint256"
        },
        {
          "internalType": "uint8",
          "name": "v",
          "type": "uint8"
        },
        {
          "internalType": "bytes32",
          "name": "r",
          "type": "bytes32"
        },
        {
          "internalType": "bytes32",
          "name": "s",
          "type": "bytes32"
        }
      ],
      "name": "delegateBySig",
      "outputs": [],
      "stateMutability": "nonpayable",
      "type": "function"
    },
    {
      "inputs": [
        {
          "internalType": "address",
          "name": "account",
          "type": "address"
        }
      ],
      "name": "delegates",
      "outputs": [
        {
          "internalType": "address",
          "name": "",
          "type": "address"
        }
      ],
      "stateMutability": "view",
      "type": "function"
    },
    {
      "inputs": [
        {
          "internalType": "uint256",
          "name": "tokenId",
          "type": "uint256"
        }
      ],
      "name": "getApproved",
      "outputs": [
        {
          "internalType": "address",
          "name": "",
          "type": "address"
        }
      ],
      "stateMutability": "view",
      "type": "function"
    },
    {
      "inputs": [
        {
          "internalType": "uint256",
          "name": "blockNumber",
          "type": "uint256"
        }
      ],
      "name": "getPastTotalSupply",
      "outputs": [
        {
          "internalType": "uint256",
          "name": "",
          "type": "uint256"
        }
      ],
      "stateMutability": "view",
      "type": "function"
    },
    {
      "inputs": [
        {
          "internalType": "address",
          "name": "account",
          "type": "address"
        },
        {
          "internalType": "uint256",
          "name": "blockNumber",
          "type": "uint256"
        }
      ],
      "name": "getPastVotes",
      "outputs": [
        {
          "internalType": "uint256",
          "name": "",
          "type": "uint256"
        }
      ],
      "stateMutability": "view",
      "type": "function"
    },
    {
      "inputs": [
        {
          "internalType": "address",
          "name": "account",
          "type": "address"
        }
      ],
      "name": "getVotes",
      "outputs": [
        {
          "internalType": "uint256",
          "name": "",
          "type": "uint256"
        }
      ],
      "stateMutability": "view",
      "type": "function"
    },
    {
      "inputs": [
        {
          "internalType": "address",
          "name": "owner",
          "type": "address"
        },
        {
          "internalType": "address",
          "name": "operator",
          "type": "address"
        }
      ],
      "name": "isApprovedForAll",
      "outputs": [
        {
          "internalType": "bool",
          "name": "",
          "type": "bool"
        }
      ],
      "stateMutability": "view",
      "type": "function"
    },
    {
      "inputs": [
        {
          "internalType": "address",
          "name": "to",
          "type": "address"
        }
      ],
      "name": "mint",
      "outputs": [],
      "stateMutability": "nonpayable",
      "type": "function"
    },
    {
      "inputs": [],
      "name": "name",
      "outputs": [
        {
          "internalType": "string",
          "name": "",
          "type": "string"
        }
      ],
      "stateMutability": "view",
      "type": "function"
    },
    {
      "inputs": [
        {
          "internalType": "address",
          "name": "owner",
          "type": "address"
        }
      ],
      "name": "nonces",
      "outputs": [
        {
          "internalType": "uint256",
          "name": "",
          "type": "uint256"
        }
      ],
      "stateMutability": "view",
      "type": "function"
    },
    {
      "inputs": [],
      "name": "owner",
      "outputs": [
        {
          "internalType": "address",
          "name": "",
          "type": "address"
        }
      ],
      "stateMutability": "view",
      "type": "function"
    },
    {
      "inputs": [
        {
          "internalType": "uint256",
          "name": "tokenId",
          "type": "uint256"
        }
      ],
      "name": "ownerOf",
      "outputs": [
        {
          "internalType": "address",
          "name": "",
          "type": "address"
        }
      ],
      "stateMutability": "view",
      "type": "function"
    },
    {
      "inputs": [
        {
          "internalType": "uint256",
          "name": "_tokenId",
          "type": "uint256"
        }
      ],
      "name": "price",
      "outputs": [
        {
          "internalType": "uint256",
          "name": "",
          "type": "uint256"
        }
      ],
      "stateMutability": "view",
      "type": "function"
    },
    {
      "inputs": [],
      "name": "renounceOwnership",
      "outputs": [],
      "stateMutability": "nonpayable",
      "type": "function"
    },
    {
      "inputs": [
        {
          "internalType": "address",
          "name": "from",
          "type": "address"
        },
        {
          "internalType": "address",
          "name": "to",
          "type": "address"
        },
        {
          "internalType": "uint256",
          "name": "tokenId",
          "type": "uint256"
        }
      ],
      "name": "safeTransferFrom",
      "outputs": [],
      "stateMutability": "nonpayable",
      "type": "function"
    },
    {
      "inputs": [
        {
          "internalType": "address",
          "name": "from",
          "type": "address"
        },
        {
          "internalType": "address",
          "name": "to",
          "type": "address"
        },
        {
          "internalType": "uint256",
          "name": "tokenId",
          "type": "uint256"
        },
        {
          "internalType": "bytes",
          "name": "_data",
          "type": "bytes"
        }
      ],
      "name": "safeTransferFrom",
      "outputs": [],
      "stateMutability": "nonpayable",
      "type": "function"
    },
    {
      "inputs": [
        {
          "internalType": "address",
          "name": "operator",
          "type": "address"
        },
        {
          "internalType": "bool",
          "name": "approved",
          "type": "bool"
        }
      ],
      "name": "setApprovalForAll",
      "outputs": [],
      "stateMutability": "nonpayable",
      "type": "function"
    },
    {
      "inputs": [
        {
          "internalType": "bytes4",
          "name": "interfaceId",
          "type": "bytes4"
        }
      ],
      "name": "supportsInterface",
      "outputs": [
        {
          "internalType": "bool",
          "name": "",
          "type": "bool"
        }
      ],
      "stateMutability": "view",
      "type": "function"
    },
    {
      "inputs": [],
      "name": "symbol",
      "outputs": [
        {
          "internalType": "string",
          "name": "",
          "type": "string"
        }
      ],
      "stateMutability": "view",
      "type": "function"
    },
    {
      "inputs": [
        {
          "internalType": "uint256",
          "name": "tokenId",
          "type": "uint256"
        }
      ],
      "name": "tokenURI",
      "outputs": [
        {
          "internalType": "string",
          "name": "",
          "type": "string"
        }
      ],
      "stateMutability": "view",
      "type": "function"
    },
    {
      "inputs": [
        {
          "internalType": "address",
          "name": "from",
          "type": "address"
        },
        {
          "internalType": "address",
          "name": "to",
          "type": "address"
        },
        {
          "internalType": "uint256",
          "name": "tokenId",
          "type": "uint256"
        }
      ],
      "name": "transferFrom",
      "outputs": [],
      "stateMutability": "nonpayable",
      "type": "function"
    },
    {
      "inputs": [
        {
          "internalType": "address",
          "name": "newOwner",
          "type": "address"
        }
      ],
      "name": "transferOwnership",
      "outputs": [],
      "stateMutability": "nonpayable",
      "type": "function"
    },
    {
      "inputs": [
        {
          "internalType": "uint256",
          "name": "tokenId",
          "type": "uint256"
        },
        {
          "internalType": "string[]",
          "name": "_text",
          "type": "string[]"
        }
      ],
      "name": "typewrite",
      "outputs": [],
      "stateMutability": "nonpayable",
      "type": "function"
    }
  ],
  "bytecode": "0x6101406040523480156200001257600080fd5b506040518060400160405280600a8152602001692bb434ba32a830b832b960b11b815250604051806040016040528060038152602001620312e360ec1b8152506040518060400160405280600a8152602001692bb434ba32a830b832b960b11b81525060405180604001604052806002815260200161057560f41b8152508160009080519060200190620000a8929190620001cc565b508051620000be906001906020840190620001cc565b505050620000db620000d56200017660201b60201c565b6200017a565b815160208084019190912082518383012060e08290526101008190524660a0818152604080517f8b73c3c69bb8fe3d512ecc4cf759cc79239f7b179b0ffacaa9a75d522b39400f81880181905281830187905260608201869052608082019490945230818401528151808203909301835260c00190528051940193909320919290916080523060601b60c0526101205250620002af92505050565b3390565b600780546001600160a01b038381166001600160a01b0319831681179093556040519116919082907f8be0079c531659141344cd1fd0a4f28419497f9722a3daafe3b4186f6b6457e090600090a35050565b828054620001da9062000272565b90600052602060002090601f016020900481019282620001fe576000855562000249565b82601f106200021957805160ff191683800117855562000249565b8280016001018555821562000249579182015b82811115620002495782518255916020019190600101906200022c565b50620002579291506200025b565b5090565b5b808211156200025757600081556001016200025c565b600181811c908216806200028757607f821691505b60208210811415620002a957634e487b7160e01b600052602260045260246000fd5b50919050565b60805160a05160c05160601c60e051610100516101205161326a620003026000396000611125015260006111740152600061114f015260006110a8015260006110d2015260006110fc015261326a6000f3fe608060405234801561001057600080fd5b50600436106101c45760003560e01c806370a08231116100f9578063a22cb46511610097578063c3cda52011610071578063c3cda520146103c7578063c87b56dd146103da578063e985e9c5146103ed578063f2fde38b1461042957600080fd5b8063a22cb4651461038e578063b88d4fde146103a1578063bd645083146103b457600080fd5b80638da5cb5b116100d35780638da5cb5b1461034f5780638e539e8c1461036057806395d89b41146103735780639ab24eb01461037b57600080fd5b806370a0823114610321578063715018a6146103345780637ecebe001461033c57600080fd5b80633a46b1a811610166578063587cde1e11610140578063587cde1e146102bc5780635c19a95c146102e85780636352211e146102fb5780636a6278421461030e57600080fd5b80633a46b1a81461028357806342842e0e1461029657806342966c68146102a957600080fd5b8063095ea7b3116101a2578063095ea7b31461023157806323b872dd1461024657806326a49e37146102595780633644e5151461027b57600080fd5b806301ffc9a7146101c957806306fdde03146101f1578063081812fc14610206575b600080fd5b6101dc6101d73660046127c0565b61043c565b60405190151581526020015b60405180910390f35b6101f961048e565b6040516101e89190612b54565b6102196102143660046127fa565b610520565b6040516001600160a01b0390911681526020016101e8565b61024461023f366004612736565b6105ba565b005b610244610254366004612642565b6106d0565b61026d6102673660046127fa565b50600090565b6040519081526020016101e8565b61026d610702565b61026d610291366004612736565b610711565b6102446102a4366004612642565b61073a565b6102446102b73660046127fa565b610755565b6102196102ca3660046125f4565b6001600160a01b039081166000908152600860205260409020541690565b6102446102f63660046125f4565b6107cf565b6102196103093660046127fa565b6107de565b61024461031c3660046125f4565b610855565b61026d61032f3660046125f4565b61087a565b610244610901565b61026d61034a3660046125f4565b610967565b6007546001600160a01b0316610219565b61026d61036e3660046127fa565b610985565b6101f96109e1565b61026d6103893660046125f4565b6109f0565b61024461039c3660046126fa565b610a11565b6102446103af36600461267e565b610a1c565b6102446103c2366004612813565b610a54565b6102446103d5366004612760565b610b41565b6101f96103e83660046127fa565b610c6e565b6101dc6103fb36600461260f565b6001600160a01b03918216600090815260056020908152604080832093909416825291909152205460ff1690565b6102446104373660046125f4565b610ccc565b60006001600160e01b031982166380ac58cd60e01b148061046d57506001600160e01b03198216635b5e139f60e01b145b8061048857506301ffc9a760e01b6001600160e01b03198316145b92915050565b60606000805461049d90612cc9565b80601f01602080910402602001604051908101604052809291908181526020018280546104c990612cc9565b80156105165780601f106104eb57610100808354040283529160200191610516565b820191906000526020600020905b8154815290600101906020018083116104f957829003601f168201915b5050505050905090565b6000818152600260205260408120546001600160a01b031661059e5760405162461bcd60e51b815260206004820152602c60248201527f4552433732313a20617070726f76656420717565727920666f72206e6f6e657860448201526b34b9ba32b73a103a37b5b2b760a11b60648201526084015b60405180910390fd5b506000908152600460205260409020546001600160a01b031690565b60006105c5826107de565b9050806001600160a01b0316836001600160a01b031614156106335760405162461bcd60e51b815260206004820152602160248201527f4552433732313a20617070726f76616c20746f2063757272656e74206f776e656044820152603960f91b6064820152608401610595565b336001600160a01b038216148061064f575061064f81336103fb565b6106c15760405162461bcd60e51b815260206004820152603860248201527f4552433732313a20617070726f76652063616c6c6572206973206e6f74206f7760448201527f6e6572206e6f7220617070726f76656420666f7220616c6c00000000000000006064820152608401610595565b6106cb8383610d94565b505050565b6106db335b82610e02565b6106f75760405162461bcd60e51b815260040161059590612bb9565b6106cb838383610ef9565b600061070c61109b565b905090565b6001600160a01b038216600090815260096020526040812061073390836111c2565b9392505050565b6106cb83838360405180602001604052806000815250610a1c565b61075e336106d5565b6107c35760405162461bcd60e51b815260206004820152603060248201527f4552433732314275726e61626c653a2063616c6c6572206973206e6f74206f7760448201526f1b995c881b9bdc88185c1c1c9bdd995960821b6064820152608401610595565b6107cc816112d1565b50565b336107da81836112da565b5050565b6000818152600260205260408120546001600160a01b0316806104885760405162461bcd60e51b815260206004820152602960248201527f4552433732313a206f776e657220717565727920666f72206e6f6e657869737460448201526832b73a103a37b5b2b760b91b6064820152608401610595565b610863600c80546001019055565b600061086e600c5490565b90506107da828261134c565b60006001600160a01b0382166108e55760405162461bcd60e51b815260206004820152602a60248201527f4552433732313a2062616c616e636520717565727920666f7220746865207a65604482015269726f206164647265737360b01b6064820152608401610595565b506001600160a01b031660009081526003602052604090205490565b6007546001600160a01b0316331461095b5760405162461bcd60e51b815260206004820181905260248201527f4f776e61626c653a2063616c6c6572206973206e6f7420746865206f776e65726044820152606401610595565b6109656000611366565b565b6001600160a01b0381166000908152600b6020526040812054610488565b60004382106109d65760405162461bcd60e51b815260206004820152601a60248201527f566f7465733a20626c6f636b206e6f7420796574206d696e65640000000000006044820152606401610595565b610488600a836111c2565b60606001805461049d90612cc9565b6001600160a01b0381166000908152600960205260408120610488906113b8565b6107da338383611414565b610a263383610e02565b610a425760405162461bcd60e51b815260040161059590612bb9565b610a4e848484846114e3565b50505050565b610a5d826107de565b6001600160a01b0316336001600160a01b031614610acb5760405162461bcd60e51b815260206004820152602560248201527f4f6e6c7920746865206f776e65722063616e2063616c6c20746869732066756e60448201526431ba34b7b760d91b6064820152608401610595565b6000828152600d602052604090205460ff1615610b225760405162461bcd60e51b81526020600482015260156024820152742830b832b91020b63932b0b23c902bb934ba3a32b760591b6044820152606401610595565b6000828152600e6020908152604090912082516106cb9284019061243b565b83421115610b915760405162461bcd60e51b815260206004820152601860248201527f566f7465733a207369676e6174757265206578706972656400000000000000006044820152606401610595565b604080517fe48329057bfd03d55e49b547132e39cffd9c1820ad7b9d4c5307691425d15adf60208201526001600160a01b038816918101919091526060810186905260808101859052600090610c0b90610c039060a00160405160208183030381529060405280519060200120611516565b858585611564565b9050610c168161158c565b8614610c5b5760405162461bcd60e51b8152602060048201526014602482015273566f7465733a20696e76616c6964206e6f6e636560601b6044820152606401610595565b610c6581886112da565b50505050505050565b60606000610ca2610c7e846115b4565b604051602001610c8e9190612a58565b60405160208183030381529060405261179d565b905080604051602001610cb59190612ad2565b604051602081830303815290604052915050919050565b6007546001600160a01b03163314610d265760405162461bcd60e51b815260206004820181905260248201527f4f776e61626c653a2063616c6c6572206973206e6f7420746865206f776e65726044820152606401610595565b6001600160a01b038116610d8b5760405162461bcd60e51b815260206004820152602660248201527f4f776e61626c653a206e6577206f776e657220697320746865207a65726f206160448201526564647265737360d01b6064820152608401610595565b6107cc81611366565b600081815260046020526040902080546001600160a01b0319166001600160a01b0384169081179091558190610dc9826107de565b6001600160a01b03167f8c5be1e5ebec7d5bd14f71427d1e84f3dd0314c0f7b2291e5b200ac8c7c3b92560405160405180910390a45050565b6000818152600260205260408120546001600160a01b0316610e7b5760405162461bcd60e51b815260206004820152602c60248201527f4552433732313a206f70657261746f7220717565727920666f72206e6f6e657860448201526b34b9ba32b73a103a37b5b2b760a11b6064820152608401610595565b6000610e86836107de565b9050806001600160a01b0316846001600160a01b03161480610ecd57506001600160a01b0380821660009081526005602090815260408083209388168352929052205460ff165b80610ef15750836001600160a01b0316610ee684610520565b6001600160a01b0316145b949350505050565b826001600160a01b0316610f0c826107de565b6001600160a01b031614610f705760405162461bcd60e51b815260206004820152602560248201527f4552433732313a207472616e736665722066726f6d20696e636f72726563742060448201526437bbb732b960d91b6064820152608401610595565b6001600160a01b038216610fd25760405162461bcd60e51b8152602060048201526024808201527f4552433732313a207472616e7366657220746f20746865207a65726f206164646044820152637265737360e01b6064820152608401610595565b610fdd600082610d94565b6001600160a01b0383166000908152600360205260408120805460019290611006908490612c86565b90915550506001600160a01b0382166000908152600360205260408120805460019290611034908490612c3b565b909155505060008181526002602052604080822080546001600160a01b0319166001600160a01b0386811691821790925591518493918716917fddf252ad1be2c89b69c2b068fc378daa952ba7f163c4a11628f55a4df523b3ef91a46106cb838383611903565b6000306001600160a01b037f0000000000000000000000000000000000000000000000000000000000000000161480156110f457507f000000000000000000000000000000000000000000000000000000000000000046145b1561111e57507f000000000000000000000000000000000000000000000000000000000000000090565b50604080517f00000000000000000000000000000000000000000000000000000000000000006020808301919091527f0000000000000000000000000000000000000000000000000000000000000000828401527f000000000000000000000000000000000000000000000000000000000000000060608301524660808301523060a0808401919091528351808403909101815260c0909201909252805191012090565b60004382106112135760405162461bcd60e51b815260206004820181905260248201527f436865636b706f696e74733a20626c6f636b206e6f7420796574206d696e65646044820152606401610595565b825460005b8181101561127857600061122c828461190e565b90508486600001828154811061124457611244612d6f565b60009182526020909120015463ffffffff16111561126457809250611272565b61126f816001612c3b565b91505b50611218565b81156112bc578461128a600184612c86565b8154811061129a5761129a612d6f565b60009182526020909120015464010000000090046001600160e01b03166112bf565b60005b6001600160e01b031695945050505050565b6107cc81611929565b6001600160a01b0382811660008181526008602052604080822080548686166001600160a01b0319821681179092559151919094169392849290917f3134e8a2e6d97e929a7e54011ea5485d7d196dd5f0ba4d4ef95803e8e3fc257f9190a46106cb818361134786611969565b611974565b6107da828260405180602001604052806000815250611ab1565b600780546001600160a01b038381166001600160a01b0319831681179093556040519116919082907f8be0079c531659141344cd1fd0a4f28419497f9722a3daafe3b4186f6b6457e090600090a35050565b8054600090801561140157826113cf600183612c86565b815481106113df576113df612d6f565b60009182526020909120015464010000000090046001600160e01b0316611404565b60005b6001600160e01b03169392505050565b816001600160a01b0316836001600160a01b031614156114765760405162461bcd60e51b815260206004820152601960248201527f4552433732313a20617070726f766520746f2063616c6c6572000000000000006044820152606401610595565b6001600160a01b03838116600081815260056020908152604080832094871680845294825291829020805460ff191686151590811790915591519182527f17307eab39ab6107e8899845ad3d59bd9653f200f220920489ca2b5937696c31910160405180910390a3505050565b6114ee848484610ef9565b6114fa84848484611ae4565b610a4e5760405162461bcd60e51b815260040161059590612b67565b600061048861152361109b565b8360405161190160f01b6020820152602281018390526042810182905260009060620160405160208183030381529060405280519060200120905092915050565b600080600061157587878787611bee565b9150915061158281611cdb565b5095945050505050565b6001600160a01b0381166000908152600b602052604090208054600181018255905b50919050565b60608060608060606040518061048001604052806104438152602001612db26104439139925060005b6000878152600e602052604090205481101561174c576060611613611603836064612c67565b61160e9060fa612c3b565b611e96565b60405160200161162391906129db565b60405160208183030381529060405290506000600e60008a8152602001908152602001600020838154811061165a5761165a612d6f565b90600052602060002001805461166f90612cc9565b80601f016020809104026020016040519081016040528092919081815260200182805461169b90612cc9565b80156116e85780601f106116bd576101008083540402835291602001916116e8565b820191906000526020600020905b8154815290600101906020018083116116cb57829003601f168201915b50505050509050818160405160200161170292919061299a565b60405160208183030381529060405291508682604051602001611726929190612928565b60405160208183030381529060405296505050808061174490612cfe565b9150506115dd565b50604051806040016040528060068152602001651e17b9bb339f60d11b815250915082848360405160200161178393929190612957565b60408051601f198184030181529190529695505050505050565b60608151600014156117bd57505060408051602081019091526000815290565b60006040518060600160405280604081526020016131f560409139905060006003845160026117ec9190612c3b565b6117f69190612c53565b611801906004612c67565b90506000611810826020612c3b565b67ffffffffffffffff81111561182857611828612d85565b6040519080825280601f01601f191660200182016040528015611852576020820181803683370190505b509050818152600183018586518101602084015b818310156118be576003830192508251603f8160121c168501518253600182019150603f81600c1c168501518253600182019150603f8160061c168501518253600182019150603f8116850151825350600101611866565b6003895106600181146118d857600281146118e9576118f5565b613d3d60f01b6001198301526118f5565b603d60f81b6000198301525b509398975050505050505050565b6106cb838383611f94565b600061191d6002848418612c53565b61073390848416612c3b565b61193281611fa0565b6000818152600660205260409020805461194b90612cc9565b1590506107cc5760008181526006602052604081206107cc91612494565b60006104888261087a565b816001600160a01b0316836001600160a01b0316141580156119965750600081115b156106cb576001600160a01b03831615611a24576001600160a01b038316600090815260096020526040812081906119d1906120438561204f565b91509150846001600160a01b03167fdec2bacdd2f05b59de34da9b523dff8be42e5e38e818c82fdb0bae774387a7248383604051611a19929190918252602082015260400190565b60405180910390a250505b6001600160a01b038216156106cb576001600160a01b03821660009081526009602052604081208190611a5a9061207d8561204f565b91509150836001600160a01b03167fdec2bacdd2f05b59de34da9b523dff8be42e5e38e818c82fdb0bae774387a7248383604051611aa2929190918252602082015260400190565b60405180910390a25050505050565b611abb8383612089565b611ac86000848484611ae4565b6106cb5760405162461bcd60e51b815260040161059590612b67565b60006001600160a01b0384163b15611be657604051630a85bd0160e11b81526001600160a01b0385169063150b7a0290611b28903390899088908890600401612b17565b602060405180830381600087803b158015611b4257600080fd5b505af1925050508015611b72575060408051601f3d908101601f19168201909252611b6f918101906127dd565b60015b611bcc573d808015611ba0576040519150601f19603f3d011682016040523d82523d6000602084013e611ba5565b606091505b508051611bc45760405162461bcd60e51b815260040161059590612b67565b805181602001fd5b6001600160e01b031916630a85bd0160e11b149050610ef1565b506001610ef1565b6000807f7fffffffffffffffffffffffffffffff5d576e7357a4501ddfe92f46681b20a0831115611c255750600090506003611cd2565b8460ff16601b14158015611c3d57508460ff16601c14155b15611c4e5750600090506004611cd2565b6040805160008082526020820180845289905260ff881692820192909252606081018690526080810185905260019060a0016020604051602081039080840390855afa158015611ca2573d6000803e3d6000fd5b5050604051601f1901519150506001600160a01b038116611ccb57600060019250925050611cd2565b9150600090505b94509492505050565b6000816004811115611cef57611cef612d59565b1415611cf85750565b6001816004811115611d0c57611d0c612d59565b1415611d5a5760405162461bcd60e51b815260206004820152601860248201527f45434453413a20696e76616c6964207369676e617475726500000000000000006044820152606401610595565b6002816004811115611d6e57611d6e612d59565b1415611dbc5760405162461bcd60e51b815260206004820152601f60248201527f45434453413a20696e76616c6964207369676e6174757265206c656e677468006044820152606401610595565b6003816004811115611dd057611dd0612d59565b1415611e295760405162461bcd60e51b815260206004820152602260248201527f45434453413a20696e76616c6964207369676e6174757265202773272076616c604482015261756560f01b6064820152608401610595565b6004816004811115611e3d57611e3d612d59565b14156107cc5760405162461bcd60e51b815260206004820152602260248201527f45434453413a20696e76616c6964207369676e6174757265202776272076616c604482015261756560f01b6064820152608401610595565b606081611eba5750506040805180820190915260018152600360fc1b602082015290565b8160005b8115611ee45780611ece81612cfe565b9150611edd9050600a83612c53565b9150611ebe565b60008167ffffffffffffffff811115611eff57611eff612d85565b6040519080825280601f01601f191660200182016040528015611f29576020820181803683370190505b5090505b8415610ef157611f3e600183612c86565b9150611f4b600a86612d19565b611f56906030612c3b565b60f81b818381518110611f6b57611f6b612d6f565b60200101906001600160f81b031916908160001a905350611f8d600a86612c53565b9450611f2d565b6106cb838360016121d3565b6000611fab826107de565b9050611fb8600083610d94565b6001600160a01b0381166000908152600360205260408120805460019290611fe1908490612c86565b909155505060008281526002602052604080822080546001600160a01b0319169055518391906001600160a01b038416907fddf252ad1be2c89b69c2b068fc378daa952ba7f163c4a11628f55a4df523b3ef908390a46107da81600084611903565b60006107338284612c86565b6000806120718561206c612062886113b8565b868863ffffffff16565b612243565b91509150935093915050565b60006107338284612c3b565b6001600160a01b0382166120df5760405162461bcd60e51b815260206004820181905260248201527f4552433732313a206d696e7420746f20746865207a65726f20616464726573736044820152606401610595565b6000818152600260205260409020546001600160a01b0316156121445760405162461bcd60e51b815260206004820152601c60248201527f4552433732313a20746f6b656e20616c7265616479206d696e746564000000006044820152606401610595565b6001600160a01b038216600090815260036020526040812080546001929061216d908490612c3b565b909155505060008181526002602052604080822080546001600160a01b0319166001600160a01b03861690811790915590518392907fddf252ad1be2c89b69c2b068fc378daa952ba7f163c4a11628f55a4df523b3ef908290a46107da60008383611903565b6001600160a01b0383166121f2576121ef600a61207d8361204f565b50505b6001600160a01b0382166122115761220e600a6120438361204f565b50505b6001600160a01b038381166000908152600860205260408082205485841683529120546106cb92918216911683611974565b8154600090819081612254866113b8565b90506000821180156122925750438661226e600185612c86565b8154811061227e5761227e612d6f565b60009182526020909120015463ffffffff16145b156122f2576122a085612369565b866122ac600185612c86565b815481106122bc576122bc612d6f565b9060005260206000200160000160046101000a8154816001600160e01b0302191690836001600160e01b03160217905550612360565b85600001604051806040016040528061230a436123d6565b63ffffffff16815260200161231e88612369565b6001600160e01b0390811690915282546001810184556000938452602093849020835194909301519091166401000000000263ffffffff909316929092179101555b95939450505050565b60006001600160e01b038211156123d25760405162461bcd60e51b815260206004820152602760248201527f53616665436173743a2076616c756520646f65736e27742066697420696e20326044820152663234206269747360c81b6064820152608401610595565b5090565b600063ffffffff8211156123d25760405162461bcd60e51b815260206004820152602660248201527f53616665436173743a2076616c756520646f65736e27742066697420696e203360448201526532206269747360d01b6064820152608401610595565b828054828255906000526020600020908101928215612488579160200282015b8281111561248857825180516124789184916020909101906124ce565b509160200191906001019061245b565b506123d292915061254e565b5080546124a090612cc9565b6000825580601f106124b0575050565b601f0160209004906000526020600020908101906107cc919061256b565b8280546124da90612cc9565b90600052602060002090601f0160209004810192826124fc5760008555612542565b82601f1061251557805160ff1916838001178555612542565b82800160010185558215612542579182015b82811115612542578251825591602001919060010190612527565b506123d292915061256b565b808211156123d25760006125628282612494565b5060010161254e565b5b808211156123d2576000815560010161256c565b600067ffffffffffffffff83111561259a5761259a612d85565b6125ad601f8401601f1916602001612c0a565b90508281528383830111156125c157600080fd5b828260208301376000602084830101529392505050565b80356001600160a01b03811681146125ef57600080fd5b919050565b60006020828403121561260657600080fd5b610733826125d8565b6000806040838503121561262257600080fd5b61262b836125d8565b9150612639602084016125d8565b90509250929050565b60008060006060848603121561265757600080fd5b612660846125d8565b925061266e602085016125d8565b9150604084013590509250925092565b6000806000806080858703121561269457600080fd5b61269d856125d8565b93506126ab602086016125d8565b925060408501359150606085013567ffffffffffffffff8111156126ce57600080fd5b8501601f810187136126df57600080fd5b6126ee87823560208401612580565b91505092959194509250565b6000806040838503121561270d57600080fd5b612716836125d8565b91506020830135801515811461272b57600080fd5b809150509250929050565b6000806040838503121561274957600080fd5b612752836125d8565b946020939093013593505050565b60008060008060008060c0878903121561277957600080fd5b612782876125d8565b95506020870135945060408701359350606087013560ff811681146127a657600080fd5b9598949750929560808101359460a0909101359350915050565b6000602082840312156127d257600080fd5b813561073381612d9b565b6000602082840312156127ef57600080fd5b815161073381612d9b565b60006020828403121561280c57600080fd5b5035919050565b600080604080848603121561282757600080fd5b8335925060208085013567ffffffffffffffff8082111561284757600080fd5b818701915087601f83011261285b57600080fd5b81358181111561286d5761286d612d85565b8060051b61287c858201612c0a565b8281528581019085870183870188018d101561289757600080fd5b600093505b848410156128e9578035868111156128b357600080fd5b8701603f81018e136128c457600080fd5b6128d48e8a8301358c8401612580565b8452506001939093019291870191870161289c565b5080985050505050505050509250929050565b60008151808452612914816020860160208601612c9d565b601f01601f19169290920160200192915050565b6000835161293a818460208801612c9d565b83519083019061294e818360208801612c9d565b01949350505050565b60008451612969818460208901612c9d565b84519083019061297d818360208901612c9d565b8451910190612990818360208801612c9d565b0195945050505050565b600083516129ac818460208801612c9d565b8351908301906129c0818360208801612c9d565b661e17ba32bc3a1f60c91b9101908152600701949350505050565b703c7465787420783d273230302720793d2760781b815260008251612a07816011850160208701612c9d565b7f2720666f6e742d66616d696c793d27417269616c2720666f6e742d73697a653d601193909101928301525073139a99971993903334b6361e93b13630b1b5939f60611b6031820152604501919050565b693d913730b6b2911d101160b11b815265746573744d4560d01b600a82015261088b60f21b60108201526e1134b6b0b3b2afb230ba30911d101160891b60128201528151600090612ab0816021850160208701612c9d565b601160f91b6021939091019283015250607d60f81b6022820152602301919050565b7f646174613a6170706c69636174696f6e2f6a736f6e3b6261736536342c000000815260008251612b0a81601d850160208701612c9d565b91909101601d0192915050565b6001600160a01b0385811682528416602082015260408101839052608060608201819052600090612b4a908301846128fc565b9695505050505050565b60208152600061073360208301846128fc565b60208082526032908201527f4552433732313a207472616e7366657220746f206e6f6e20455243373231526560408201527131b2b4bb32b91034b6b83632b6b2b73a32b960711b606082015260800190565b60208082526031908201527f4552433732313a207472616e736665722063616c6c6572206973206e6f74206f6040820152701ddb995c881b9bdc88185c1c1c9bdd9959607a1b606082015260800190565b604051601f8201601f1916810167ffffffffffffffff81118282101715612c3357612c33612d85565b604052919050565b60008219821115612c4e57612c4e612d2d565b500190565b600082612c6257612c62612d43565b500490565b6000816000190483118215151615612c8157612c81612d2d565b500290565b600082821015612c9857612c98612d2d565b500390565b60005b83811015612cb8578181015183820152602001612ca0565b83811115610a4e5750506000910152565b600181811c90821680612cdd57607f821691505b602082108114156115ae57634e487b7160e01b600052602260045260246000fd5b6000600019821415612d1257612d12612d2d565b5060010190565b600082612d2857612d28612d43565b500690565b634e487b7160e01b600052601160045260246000fd5b634e487b7160e01b600052601260045260246000fd5b634e487b7160e01b600052602160045260246000fd5b634e487b7160e01b600052603260045260246000fd5b634e487b7160e01b600052604160045260246000fd5b6001600160e01b0319811681146107cc57600080fdfe3c7376672077696474683d273234393427206865696768743d2733353233272076696577426f783d2730203020323439342033353233272066696c6c3d276e6f6e652720786d6c6e733d27687474703a2f2f7777772e77332e6f72672f323030302f737667273e203c672066696c7465723d2775726c282366696c746572305f645f313831355f323030373529273e203c7061746820643d274d3020302e35483234383056333530382e35483138342e3634324c3020333330392e373956302e355a272066696c6c3d277768697465272f3e203c7061746820643d274d3138372e31343220333330392e373956333330372e3239483138342e36343248322e35563348323437372e355633353036483138372e31343256333330392e37395a4d3138322e31343220333331322e323956333530322e31344c352e373335353620333331322e3239483138322e3134325a27207374726f6b653d272341334131413127207374726f6b652d77696474683d2735272f3e203c2f673e203c646566733e203c66696c7465722069643d2766696c746572305f645f313831355f32303037352720783d27302720793d27302e35272077696474683d273234393427206865696768743d2733353232272066696c746572556e6974733d277573657253706163654f6e5573652720636f6c6f722d696e746572706f6c6174696f6e2d66696c746572733d2773524742273e203c6665466c6f6f6420666c6f6f642d6f7061636974793d27302720726573756c743d274261636b67726f756e64496d616765466978272f3e3c6665436f6c6f724d617472697820696e3d27536f75726365416c7068612720747970653d276d6174726978272076616c7565733d2730203020302030203020302030203020302030203020302030203020302030203020302031323720302720726573756c743d2768617264416c706861272f3e203c66654f66667365742064783d273130272064793d273130272f3e3c6665476175737369616e426c757220737464446576696174696f6e3d2732272f3e203c6665436f6d706f7369746520696e323d2768617264416c70686127206f70657261746f723d276f7574272f3e203c6665436f6c6f724d617472697820747970653d276d6174726978272076616c7565733d27302030203020302030203020302030203020302030203020302030203020302030203020302e32352030272f3e203c6665426c656e64206d6f64653d276e6f726d616c2720696e323d274261636b67726f756e64496d6167654669782720726573756c743d27656666656374315f64726f70536861646f775f313831355f3230303735272f3e203c6665426c656e64206d6f64653d276e6f726d616c2720696e3d27536f75726365477261706869632720696e323d27656666656374315f64726f70536861646f775f313831355f32303037352720726573756c743d277368617065272f3e203c2f66696c7465723e3c2f646566733e4142434445464748494a4b4c4d4e4f505152535455565758595a6162636465666768696a6b6c6d6e6f707172737475767778797a303132333435363738392b2fa2646970667358221220c5c1ee2f30e681648743a9317396dcb39218207de6f9b6f2ae49709f1ec5c58b64736f6c63430008070033",
  "linkReferences": {},
  "deployedLinkReferences": {}
}